:020000040000FA
:100000000C9461000C94D9010C94B2010C947E0004
:100010000C947E000C947E000C947E000C947E0068
:100020000C947E000C947E000C947E000C947E0058
:100030000C947E000C947E000C947E000C947E0048
:100040000C9468010C947E000C947E000C947E004D
:100050000C947E000C947E000C947E000C947E0028
:100060000C947E000C947E00000000002400270009
:100070002A0000000000250028002B0000000000DE
:1000800023002600290004040404040404040202DA
:100090000202020203030303030301020408102007
:1000A0004080010204081020010204081020000012
:1000B0000008000201000003040700000000000027
:1000C000000011241FBECFEFD8E0DEBFCDBF11E08E
:1000D000A0E0B1E0ECEEF5E002C005900D92A43096
:1000E000B107D9F721E0A4E0B1E001C01D92A13130
:1000F000B207E1F70E9400020C94F4020C94000095
:1001000010920E0110920D011092100110920F0129
:100110000895833081F028F4813099F08230A9F07D
:1001200008958730A9F08830C9F08430B1F4809107
:1001300080008F7D03C0809180008F778093800046
:10014000089584B58F7784BD089584B58F7DFBCFE6
:100150008091B0008F778093B00008958091B000B7
:100160008F7DF9CFCF93DF93282F30E0F901E2554F
:10017000FF4F8491F901E656FF4FD491F901EA57F8
:10018000FF4FC491CC23A1F081110E948900EC2F74
:10019000F0E0EE0FFF1FE458FF4FA591B491EC91F2
:1001A000ED2381E090E009F480E0DF91CF910895A4
:1001B00080E090E0FACF1F93CF93DF93282F30E0B9
:1001C000F901E255FF4F8491F901E656FF4FD491B2
:1001D000F901EA57FF4FC491CC23A9F0162F8111E2
:1001E0000E948900EC2FF0E0EE0FFF1FEE58FF4F4A
:1001F000A591B4918FB7F894EC91111108C0D095E6
:10020000DE23DC938FBFDF91CF911F910895DE2B0A
:10021000F8CFCF93DF9390E0FC01E656FF4F249197
:100220008A579F4FFC0184918823D1F090E0880F7A
:10023000991FFC01E859FF4FA591B491FC01EE58BC
:10024000FF4FC591D491623071F49FB7F8943C91FF
:10025000822F809583238C93E8812E2B28839FBF48
:10026000DF91CF9108958FB7F894EC912E2B2C93BA
:100270008FBFF6CF3FB7F8948091090190910A01A2
:10028000A0910B01B0910C0126B5A89B05C02F3F92
:1002900019F00196A11DB11D3FBFBA2FA92F982FAC
:1002A0008827BC01CD01620F711D811D911D42E0A7
:1002B000660F771F881F991F4A95D1F708950895F3
:1002C00060E084E00E94DB0060E085E00C94DB00ED
:1002D0001F920F920FB60F9211242F933F938F937B
:1002E0009F93AF93BF938091050190910601A091D8
:1002F0000701B09108013091040123E0230F2D374D
:1003000058F50196A11DB11D2093040180930501AC
:1003100090930601A0930701B09308018091090111
:1003200090910A01A0910B01B0910C010196A11DC1
:10033000B11D8093090190930A01A0930B01B09322
:100340000C01BF91AF919F918F913F912F910F9091
:100350000FBE0F901F90189526E8230F0296A11D3F
:10036000B11DD2CF1F920F920FB60F9211242F936F
:100370003F934F935F936F937F938F939F93AF932D
:10038000BF93EF93FF93E0910201F0910301099570
:10039000FF91EF91BF91AF919F918F917F916F915D
:1003A0005F914F913F912F910F900FBE0F901F9033
:1003B00018951F920F920FB60F9211242F933F930F
:1003C0004F935F936F937F938F939F93AF93BF935D
:1003D000EF93FF93E0910001F09101010995FF91E6
:1003E000EF91BF91AF919F918F917F916F915F91AD
:1003F0004F913F912F910F900FBE0F901F90189526
:10040000789484B5826084BD84B5816084BD85B5EF
:10041000826085BD85B5816085BD80916E008160FB
:1004200080936E00109281008091810082608093A1
:1004300081008091810081608093810080918000A3
:100440008160809380008091B10084608093B100CE
:100450008091B00081608093B00080917A008460C8
:1004600080937A0080917A00826080937A008091F4
:100470007A00816080937A0080917A00806880930E
:100480007A001092C10062E08BE00E94090162E0F4
:1004900082E00E94090162E083E00E94090162E0BB
:1004A0008AE00E94090161E084E00E94090161E0A4
:1004B00085E00E94090120E830E030930301209399
:1004C000020180916900837F846080936900E99ACA
:1004D0003093010120930001809169008C7F81603D
:1004E00080936900E89A8AE00E94B200892B31F477
:1004F00081E090E09093100180930F01C0E0D0E084
:1005000002E010E0EE24E394F12C80910F01909131
:1005100010018130910509F458C068F1029709F47F
:1005200043C00E943A012B013C0184EF882E99249C
:100530009394A12CB12C0E943A0164197509860983
:100540009709683E734081059105A8F321E0821A5E
:100550009108A108B10888EE480E83E0581E611C7E
:10056000711C81149104A104B10429F7209769F248
:100570000E940000CACF8BE00E94B200892B59F480
:100580000E94600110920E0110920D011093100153
:1005900000930F01C6CF61E084E00E94DB0060E0C1
:1005A00085E00E94DB00BDCF80910D0190910E018E
:1005B000019690930E0180930D0105970CF4B1CF35
:1005C000F0921001E0920F01ACCF8AE00E94B200DD
:1005D000892B19F40E946001A4CF61E085E00E949C
:1005E000DB0060E084E0DDCFF894FFCF5F015F01C6
:107E0000112484B714BE81FFF0D085E080938100F7
:107E100082E08093C00088E18093C10086E0809377
:107E2000C20080E18093C4008EE0C9D0259A86E02C
:107E300020E33CEF91E0309385002093840096BBD3
:107E4000B09BFECF1D9AA8958150A9F7CC24DD24C4
:107E500088248394B5E0AB2EA1E19A2EF3E0BF2EE7
:107E6000A2D0813461F49FD0082FAFD0023811F036
:107E7000013811F484E001C083E08DD089C08234E0
:107E800011F484E103C0853419F485E0A6D080C0E4
:107E9000853579F488D0E82EFF2485D0082F10E0AE
:107EA000102F00270E291F29000F111F8ED06801E7
:107EB0006FC0863521F484E090D080E0DECF843638
:107EC00009F040C070D06FD0082F6DD080E0C81688
:107ED00080E7D80618F4F601B7BEE895C0E0D1E017
:107EE00062D089930C17E1F7F0E0CF16F0E7DF06D8
:107EF00018F0F601B7BEE89568D007B600FCFDCFD4
:107F0000A601A0E0B1E02C9130E011968C91119780
:107F100090E0982F8827822B932B1296FA010C0160
:107F200087BEE89511244E5F5F4FF1E0A038BF0790
:107F300051F7F601A7BEE89507B600FCFDCF97BE46
:107F4000E89526C08437B1F42ED02DD0F82E2BD052
:107F50003CD0F601EF2C8F010F5F1F4F84911BD097
:107F6000EA94F801C1F70894C11CD11CFA94CF0C13
:107F7000D11C0EC0853739F428D08EE10CD085E9AC
:107F80000AD08FE07ACF813511F488E018D01DD067
:107F900080E101D065CF982F8091C00085FFFCCF94
:107FA0009093C60008958091C00087FFFCCF809118
:107FB000C00084FD01C0A8958091C6000895E0E648
:107FC000F0E098E1908380830895EDDF803219F02E
:107FD00088E0F5DFFFCF84E1DECF1F93182FE3DFCA
:107FE0001150E9F7F2DF1F91089580E0E8DFEE27F6
:047FF000FF270994CA
:027FFE00040479
:00000001FF
