:020000040000FA
:100000000C9461000C9473000C9473000C947300B6
:100010000C9473000C9473000C9473000C94730094
:100020000C9473000C9473000C9473000C945E0198
:100030000C9473000C9473000C9473000C94730074
:100040000C9414010C9473000C9473000C947300C2
:100050000C9473000C9473000C9473000C94730054
:100060000C9473000C947300000000002300260021
:10007000290000000008000201000003040700003E
:1000800000000000000000000000250028002B00F8
:1000900000000000240027002A00040404040404D3
:1000A0000404020202020202030303030303010227
:1000B00004081020408001020408102001020408F6
:1000C000102011241FBECFEFD8E0DEBFCDBF21E04E
:1000D000A0E0B1E001C01D92AC30B207E1F70E9490
:1000E000BF010C9425020C94000090E0FC01E25545
:1000F000FF4F249186569F4FFC018491882399F0ED
:1001000090E0880F991FFC01E057FF4FA591B49133
:10011000FC01EA57FF4F859194918FB7F894EC91C9
:10012000E22BEC938FBF0895833081F028F4813067
:1001300099F08230A9F008958730A9F08830C9F08D
:100140008430B1F4809180008F7D03C08091800065
:100150008F7780938000089584B58F7784BD08954C
:1001600084B58F7DFBCF8091B0008F778093B000F6
:1001700008958091B0008F7DF9CFCF93DF93282F22
:1001800030E0F901EE58FF4F8491F901E255FF4F3D
:10019000D491F901E656FF4FC491CC23A1F081110F
:1001A0000E949400EC2FF0E0EE0FFF1FE859FF4F84
:1001B000A591B491EC91ED2381E090E009F480E009
:1001C000DF91CF91089580E090E0FACF1F93CF9315
:1001D000DF93282F30E0F901EE58FF4F8491F901A9
:1001E000E255FF4FD491F901E656FF4FC491CC235D
:1001F000A9F0162F81110E949400EC2FF0E0EE0F71
:10020000FF1FEA57FF4FA591B4918FB7F894EC9177
:10021000111108C0D095DE23DC938FBFDF91CF9101
:100220001F910895DE2BF8CF1F920F920FB60F92F9
:1002300011242F933F938F939F93AF93BF938091FC
:10024000080190910901A0910A01B0910B01309130
:10025000070123E0230F2D3758F50196A11DB11D8D
:10026000209307018093080190930901A0930A014C
:10027000B0930B018091030190910401A0910501BD
:10028000B09106010196A11DB11D809303019093C9
:100290000401A0930501B0930601BF91AF919F9116
:1002A0008F913F912F910F900FBE0F901F90189537
:1002B00026E8230F0296A11DB11DD2CF1F920F92E7
:1002C0000FB60F9211242F933F934F935F936F9329
:1002D0007F938F939F93AF93BF93EF93FF938091FF
:1002E0000201882311F18150809302018091010164
:1002F000882349F181508093010180910001882376
:1003000081F1815080930001FF91EF91BF91AF91F6
:100310009F918F917F916F915F914F913F912F911D
:100320000F900FBE0F901F90189581E080930201EF
:100330008CE00E94BD0060E0019709F061E08CE074
:100340000E94E600D3CF85E0809301018AE00E94FD
:10035000BD0060E0019709F061E08AE00E94E600DC
:10036000CCCF82E0809300018BE00E94BD0060E072
:10037000019709F061E08BE00E94E600C5CF789418
:1003800084B5826084BD84B5816084BD85B582609A
:1003900085BD85B5816085BD80916E00816080934B
:1003A0006E001092810080918100826080938100B4
:1003B00080918100816080938100809180008160C4
:1003C000809380008091B10084608093B10080911F
:1003D000B00081608093B00080917A008460809347
:1003E0007A0080917A00826080937A0080917A000E
:1003F000816080937A0080917A00806880937A008F
:100400001092C1008AE00E9475008BE00E94750086
:100410008CE00E947500109285001092840089E2A1
:1004200098E690938900809388001092800089E07C
:100430008093810082E080936F007894C0E0D0E0E8
:0E0440002097F1F30E940000FBCFF894FFCF4D
:107E0000112484B714BE81FFF0D085E080938100F7
:107E100082E08093C00088E18093C10086E0809377
:107E2000C20080E18093C4008EE0C9D0259A86E02C
:107E300020E33CEF91E0309385002093840096BBD3
:107E4000B09BFECF1D9AA8958150A9F7CC24DD24C4
:107E500088248394B5E0AB2EA1E19A2EF3E0BF2EE7
:107E6000A2D0813461F49FD0082FAFD0023811F036
:107E7000013811F484E001C083E08DD089C08234E0
:107E800011F484E103C0853419F485E0A6D080C0E4
:107E9000853579F488D0E82EFF2485D0082F10E0AE
:107EA000102F00270E291F29000F111F8ED06801E7
:107EB0006FC0863521F484E090D080E0DECF843638
:107EC00009F040C070D06FD0082F6DD080E0C81688
:107ED00080E7D80618F4F601B7BEE895C0E0D1E017
:107EE00062D089930C17E1F7F0E0CF16F0E7DF06D8
:107EF00018F0F601B7BEE89568D007B600FCFDCFD4
:107F0000A601A0E0B1E02C9130E011968C91119780
:107F100090E0982F8827822B932B1296FA010C0160
:107F200087BEE89511244E5F5F4FF1E0A038BF0790
:107F300051F7F601A7BEE89507B600FCFDCF97BE46
:107F4000E89526C08437B1F42ED02DD0F82E2BD052
:107F50003CD0F601EF2C8F010F5F1F4F84911BD097
:107F6000EA94F801C1F70894C11CD11CFA94CF0C13
:107F7000D11C0EC0853739F428D08EE10CD085E9AC
:107F80000AD08FE07ACF813511F488E018D01DD067
:107F900080E101D065CF982F8091C00085FFFCCF94
:107FA0009093C60008958091C00087FFFCCF809118
:107FB000C00084FD01C0A8958091C6000895E0E648
:107FC000F0E098E1908380830895EDDF803219F02E
:107FD00088E0F5DFFFCF84E1DECF1F93182FE3DFCA
:107FE0001150E9F7F2DF1F91089580E0E8DFEE27F6
:047FF000FF270994CA
:027FFE00040479
:00000001FF
