:100000000C945E000C9486000C9486000C94860080
:100010000C9486000C9486000C9486000C94860048
:100020000C9486000C9486000C9486000C94860038
:100030000C9486000C9486000C9486000C94860028
:100040000C9482080C9486000C9450080C942A0896
:100050000C9486000C9486000C9486000C94860008
:100060000C9486000C948600000000080002010039
:100070000003040700000000000000000000000072
:10008000250028002B0000000000240027002A0083
:10009000040404040404040402020202020203032E
:1000A0000303030301020408102040800102040836
:1000B0001020010204081020CC08F70D11241FBEE7
:1000C000CFEFD8E0DEBFCDBF12E0A0E0B1E0E0EDC1
:1000D000F1E202C005900D92AA30B107D9F723E0F2
:1000E000AAE0B2E001C01D92A830B207E1F710E02B
:1000F000CDE5D0E004C02197FE010E94CB0ECC35A7
:10010000D107C9F70E9435090C94DB100C9400004C
:1001100090E0FC01EC55FF4F249180579F4FFC016C
:100120008491882399F090E0880F991FFC01EA5789
:10013000FF4FA591B491FC01E458FF4F8591949134
:100140008FB7F894EC91E22BEC938FBF089508954C
:10015000DC01ED91FC910190F081E02D0994AF92CA
:10016000BF92CF92DF92EF92FF920F931F93CF93A4
:10017000DF936C017B018B01040F151FEB015E0106
:10018000AE18BF08C017D10759F06991D601ED919B
:10019000FC910190F081E02DC6010995892B79F73A
:1001A000C501DF91CF911F910F91FF90EF90DF90EC
:1001B000CF90BF90AF900895FC01538D448D252FB3
:1001C00030E0842F90E0821B930B541710F0CF96F1
:1001D000089501970895FC01918D828D981761F023
:1001E000A28DAE0FBF2FB11D5D968C91928D9F5F3A
:1001F0009F73928F90E008958FEF9FEF08952FB730
:10020000F89480913B0290913C02A0913D02B09104
:100210003E022FBF80934B0290934C02A0934D025D
:10022000B0934E0283E492E00E94EB0097FF26C059
:100230002FB7F89480913B0290913C02A0913D022F
:10024000B0913E022FBF40914B0250914C02609101
:100250004D0270914E02841B950BA60BB70B40917B
:100260004702509148026091490270914A028417F6
:100270009507A607B707B0F28FEF9FEF0895FC012F
:10028000918D828D981731F0828DE80FF11D858D4B
:1002900090E008958FEF9FEF0895FC01918D228DDE
:1002A000892F90E0805C9F4F821B91098F73992763
:1002B000089583E492E00E944D0121E0892B09F426
:1002C00020E0822F089580E090E0892B29F00E94A1
:1002D000590181110C9400000895FC01A48DA80F10
:1002E000B92FB11DA35ABF4F2C91848D90E0019678
:1002F0008F739927848FA689B7892C93A089B18998
:100300008C91837080648C93938D848D981306C038
:100310000288F389E02D80818F7D80830895EF929C
:10032000FF920F931F93CF93DF93EC0181E0888FAF
:100330009B8D8C8D98131AC0E889F989808185FF7F
:1003400015C09FB7F894EE89FF896083E889F98921
:1003500080818370806480839FBF81E090E0DF9123
:10036000CF911F910F91FF90EF900895F62E0B8D76
:1003700010E00F5F1F4F0F731127E02E8C8D8E1131
:100380000CC00FB607FCFACFE889F989808185FF98
:10039000F5CFCE010E946D01F1CFEB8DEC0FFD2F5B
:1003A000F11DE35AFF4FF0829FB7F8940B8FEA8953
:1003B000FB8980818062CFCFCF93DF93EC01888D62
:1003C0008823B9F0AA89BB89E889F9898C9185FDD0
:1003D00003C0808186FD0DC00FB607FCF7CF8C915E
:1003E00085FFF2CF808185FFEDCFCE010E946D01A8
:1003F000E9CFDF91CF91089590E0FC01E859FF4FDC
:100400002491FC01EC55FF4F3491FC01E057FF4F64
:10041000E491EE23C9F0222339F0233001F1A8F44E
:10042000213019F1223029F1F0E0EE0FFF1FE458DE
:10043000FF4FA591B4918FB7F894EC91611126C04C
:1004400030953E233C938FBF08952730A9F0283084
:10045000C9F0243049F7809180008F7D03C08091DE
:1004600080008F7780938000DFCF84B58F7784BD45
:10047000DBCF84B58F7DFBCF8091B0008F778093E9
:10048000B000D2CF8091B0008F7DF9CF3E2BDACF74
:100490008E50806480937C0080917A008064809389
:1004A0007A0080917A0086FDFCCF8091780090914F
:1004B000790008953FB7F89480910B0290910C0257
:1004C000A0910D02B0910E0226B5A89B05C02F3F4A
:1004D00019F00196A11DB11D3FBFBA2FA92F982F6A
:1004E0008827BC01CD01620F711D811D911D42E065
:1004F000660F771F881F991F4A95D1F708958F922D
:100500009F92AF92BF92CF92DF92EF92FF924B01F8
:100510005C010E945A026B017C010E945A026C1914
:100520007D098E099F09683E734081059105A8F3F6
:1005300021E0821A9108A108B10888EEC80E83E074
:10054000D81EE11CF11C81149104A104B10429F707
:10055000FF90EF90DF90CF90BF90AF909F908F90E3
:10056000089590E080E00895CF92DF92EF92FF929D
:100570004091350250913602052E000C660B770B28
:10058000C0903702D0903802E0903902F0903A02E1
:10059000C416D506E606F706C4F4C41AD50AE60A58
:1005A000F70A61E083E00E94FC0161E08EEFC8166B
:1005B0008FEFD806E806F8060CF060E082E0FF90C6
:1005C000EF90DF90CF900C94FC0160E082E00E94FD
:1005D000FC0160E083E0F3CFCF92DF92EF92FF92D5
:1005E0004091350250913602052E000C660B770BB8
:1005F000C0903702D0903802E0903902F0903A0271
:100600004C155D056E057F05BCF4C41AD50AE60AD3
:10061000F70A61E08CE00E94FC0161E083E0C8160B
:10062000D104E104F1040CF460E08BE0FF90EF9062
:10063000DF90CF900C94FC0160E08BE00E94FC0105
:1006400060E08CE0F3CF8EE00E9448028634910592
:10065000A4F08B3E91059CF08F3921E092078CF03D
:100660008C3622E092077CF08C3B22E092076CF003
:100670008037934064F080E0089582E708958CE627
:10068000089585E7089584E608958FE6089583E642
:1006900008950E9423038111FCCF64E170E080E0A3
:1006A00090E00E947F020E9423038111F2CF0895FF
:1006B000CF93DF93EC0160E08E810E94FC0161E04A
:1006C0008E810E94FC0160E08E810E94FC018BE81B
:1006D00091E00197F1F7DF91CF910895CF92DF92EA
:1006E000EF92FF920F931F93CF93DF936C017C01E6
:1006F00087E0E80EF11CD0E0C0E0062F10E0B80162
:100700000C2E02C0759567950A94E2F76170F701A7
:1007100081917F010E94FC012196C430D10579F7B7
:10072000C601DF91CF911F910F91FF90EF90DF9065
:10073000CF900C945803CF92DF92EF92FF920F93D9
:100740001F93CF93DF93EC01F62E642F8C810E94D0
:10075000FC018D818F3F19F060E00E94FC010F2D9C
:1007600010E08F8584FF25C06E0187E0C80ED11C84
:10077000F12CE12CB8010E2C02C0759567950A94F6
:10078000E2F76170F60181916F010E94FC01FFEFB9
:10079000EF1AFF0A88E0E816F10461F7CE01DF9155
:1007A000CF911F910F91FF90EF90DF90CF900C941D
:1007B0005803B80184E0759567958A95E1F7CE01F5
:1007C0000E946E036F2DCE01DF91CF911F910F918B
:1007D000FF90EF90DF90CF900C946E0340E0682F75
:1007E0008CEE92E00C949B0381E00E94EE038BE37D
:1007F0009FE10197F1F70895CF93DF93613029F0DE
:100800009091FB0298609093FB026093FF0210921C
:10081000000390E49093010380930203805C809333
:1008200003038091F0020E9488008091F1028F3FC3
:1008300011F00E9488008091F2020E948800CCEEA4
:10084000D2E09E012C5E32408091FB0284FD0AC002
:1008500084E090E02196281739073CF48E810E94AD
:100860008800EFCF88E090E0F5CF8BE39DE0019723
:10087000F1F760E08091F0020E94FC0160E080915D
:10088000F2020E94FC018091F1028F3F19F060E0BA
:100890000E94FC018091FB0284FD34C063E08CEE79
:1008A00092E00E946E03CBE4D6E4CE010197F1F70B
:1008B00063E08CEE92E00E946E032197F1F763E013
:1008C0008CEE92E00E946E0383E592E00197F1F7CF
:1008D00062E08CEE92E00E946E038091FB028062E7
:1008E0000E94EE0384E08093FC028CE00E94EE0301
:1008F0000E94F40382E08093FD0286E0DF91CF91B5
:100900000C94EE0380620E94EE038BE496E4019760
:10091000F1F78091FB0280620E94EE0383E592E092
:100920000197F1F78091FB0280620E94EE03D5CF20
:10093000643008F063E09091FF02691710F06FEFE8
:10094000690FE62FF0E0E451FD4F9489890F80682C
:100950000C94EE0341E00E949B0381E090E0089537
:10096000FB0101900020E9F73197AF01461B570BBF
:10097000DC01ED91FC910280F381E02D09944F920E
:100980005F926F927F92AF92BF92CF92DF92EF927F
:10099000FF920F931F93CF93DF93CDB7DEB7A1974D
:1009A0000FB6F894DEBF0FBECDBF5C016A017B01BC
:1009B000F7FE42C06DE20E94A8008C012227332777
:1009C000A9012C193D094E095F0919A2CE01819692
:1009D0007C019AE0492E512C612C712CCA01B9017D
:1009E000A30192010E946B0E605DF70162937F018B
:1009F000211531054105510589F790E080E03097D8
:100A000021F0BF01C5010E94B004800F911FA19683
:100A10000FB6F894DEBF0FBECDBFDF91CF911F910F
:100A20000F91FF90EF90DF90CF90BF90AF907F90AD
:100A30006F905F904F900895AB01960119A28E01BF
:100A40000F5D1F4F8AE0C82ED12CE12CF12CCA017A
:100A5000B901A70196010E946B0E605DF8016293D7
:100A60008F01211531054105510589F790E080E09E
:100A7000309769F2BF01C5010E94B004C8CFAB0135
:100A8000770F660B770B0C94BF04CF93DF93BC01F9
:100A900083E492E00E94B004EC0165E271E083E43B
:100AA00092E00E94B0048C0F9D1FDF91CF910895BA
:100AB0000C94B004AF92BF92CF92DF92EF92FF926C
:100AC0000F931F93CF93DF938C017B010E94490307
:100AD0000E94F40362E081E00E94980468E271E001
:100AE0008CEE92E00E94580582E0E816F10479F558
:100AF000C0914102D091420280913F029091400208
:100B00000C171D071CF0801791070CF5C80FD91F93
:100B1000D7FD2196D595C795BE018CEE92E00E9437
:100B20003F05670181E0C81AD1085701E894A1F890
:100B30000E942303843669F164F4833609F44AC0C1
:100B400062E370E080E090E00E947F02F1CFE80174
:100B5000E3CF8F3609F43FC0853791F7A114B10474
:100B600039F480913F0290914002C817D90724F0D0
:100B700081E0E816F10459F5219601F562E08AE07A
:100B80000E94980464EA71E08CEE92E00E9458059D
:100B900015C082E0C816D10438F4809141029091CA
:100BA00042028C179D079CF42197CE01D7FF04C009
:100BB000882799278C1B9D0B099701F362E089E038
:100BC0000E949804BE018CEE92E00E943F050E94B4
:100BD0004903B6CFE801CE01DF91CF911F910F916C
:100BE000FF90EF90DF90CF90BF90AF9008950F935C
:100BF0001F93CF93DF938C010E94F40360E080E0A9
:100C00000E94980461E371E08CEE92E00E94580526
:100C100060E088E00E94980463EA71E08CEE92E064
:100C20000E94580560E08BE00E94980469E371E03F
:100C30008CEE92E00E94580561E082E00E949804E8
:100C4000E801CC0FDD1FCC0FDD1FC15FDD4F6881D8
:100C500079818CEE92E00E943F0561E08EE00E9477
:100C600098046A817B818CEE92E00E943F0562E0ED
:100C700082E00E949804E801CC0FDD1FCC0FDD1F3D
:100C8000CD5EDD4F688179818CEE92E00E943F0558
:100C900062E08EE00E9498046A817B818CEE92E093
:100CA0000E943F0561E070E080E090E00E947F02DA
:100CB0000830110574F463E080E00E94980462E457
:100CC00071E08CEE92E0DF91CF911F910F910C9427
:100CD0005805DF91CF911F910F9108950F931F93A6
:100CE000CF93DF9390E080E00E94F7050E944903D4
:100CF00010E000E00E9423038F3621F0823739F0A4
:100D00008336C1F7DF91CF911F910F910895E801CC
:100D10002296C132D10574F7C830D105B4F00E94D3
:100D2000F40360E080E00E94980460E571E08CEEDE
:100D300092E00E94580564EF71E080E090E0DF915E
:100D4000CF911F910F910C947F02CE010E94F70565
:100D50000E9449038E01CECF81E0809300010E9462
:100D6000F40360E082E00E9498046DE571E08CEE8F
:100D700092E00E94580560E08CE00E949804609127
:100D80003F02709140028CEE92E00E943F0561E0CC
:100D900082E00E94980468E671E08CEE92E00E9486
:100DA000580561E08CE00E949804609141027091C6
:100DB00042028CEE92E00E943F0540913502509134
:100DC0003602809141029091420220913F0230917F
:100DD0004002481759071CF02417350754F4820FB6
:100DE000931F97FD01969595879590933602809372
:100DF000350262E082E00E94980463E771E08CEEC5
:100E000092E00E94580562E08CE00E949804609194
:100E10003502709136028CEE92E00E943F058FE021
:100E20000E94480224EF31E0DC010E94B00E20E075
:100E300034E040E050E00E94150E209337023093DA
:100E400038024093390250933A0263E082E00E94F4
:100E500098046EE771E08CEE92E00E94580563E022
:100E60008CE00E94980440913702509138026091C2
:100E7000390270913A028CEE92E00C94BF04109209
:100E800000010E94F40360E082E00E94980468E69A
:100E900071E08CEE92E00E94580560E08CE00E94C8
:100EA000980460914102709142028CEE92E00E949F
:100EB0003F05409135025091360280914102909158
:100EC000420220913F0230914002481759071CF01E
:100ED0002417350754F4820F931F97FD01969595BB
:100EE0008795909336028093350261E082E00E94FC
:100EF000980463E771E08CEE92E00E94580561E08F
:100F00008CE00E94980460913502709136028CEE5C
:100F100092E00E943F058FE00E94480224EF31E0FA
:100F2000DC010E94B00E20E034E040E050E00E947E
:100F3000150E2093370230933802409339025093B4
:100F40003A0262E082E00E9498046EE771E08CEE63
:100F500092E00E94580562E08CE00E949804409163
:100F60003702509138026091390270913A028CEE4A
:100F700092E00E94BF0463E082E00E9498046AE865
:100F800071E08CEE92E00C945805CF93DF93EC0166
:100F900088819981009711F00E946D0F1982188243
:100FA0001D821C821B821A82DF91CF910895FC0161
:100FB00080819181009711F00C946D0F08950F932B
:100FC0001F93CF93DF93EC0188819981009759F0AB
:100FD0002A813B812617370730F081E0DF91CF91DE
:100FE0001F910F9108958B016F5F7F4F0E94F60F45
:100FF000009759F0998388831B830A832C813D8154
:10100000232B59F7FC011082E8CF80E0E7CFEF9265
:10101000FF920F931F93CF93DF93EC017B018A0123
:10102000BA010E94DF0781110BC0CE010E94C507E3
:10103000CE01DF91CF911F910F91FF90EF90089516
:101040001D830C83B701888199810E94C510F0CF60
:101050000C94FF0D1F920F920FB60F9211242F9335
:101060003F934F935F936F937F938F939F93AF9330
:10107000BF93EF93FF9383E492E00E946D01FF9191
:10108000EF91BF91AF919F918F917F916F915F9100
:101090004F913F912F910F900FBE0F901F90189579
:1010A0001F920F920FB60F9211242F938F939F933D
:1010B000EF93FF93E0915302F09154028081E0910D
:1010C0005902F0915A0282FD1BC0908180915C020E
:1010D0008F5F8F7320915D02821741F0E0915C0277
:1010E000F0E0ED5BFD4F958F80935C02FF91EF91F7
:1010F0009F918F912F910F900FBE0F901F90189579
:101100008081F4CF1F920F920FB60F9211242F936C
:101110003F938F939F93AF93BF9380913B029091A6
:101120003C02A0913D02B0913E0230910A0223E0C0
:10113000230F2D3758F50196A11DB11D20930A02EA
:1011400080933B0290933C02A0933D02B0933E02F9
:1011500080910B0290910C02A0910D02B0910E02B1
:101160000196A11DB11D80930B0290930C02A093D8
:101170000D02B0930E02BF91AF919F918F913F915D
:101180002F910F900FBE0F901F90189526E8230FF8
:101190000296A11DB11DD2CFE3E4F2E013821282C8
:1011A00088EE93E0A0E0B0E084839583A683B783C4
:1011B0008BE091E09183808385EC90E09587848734
:1011C00084EC90E09787868780EC90E0918B808B11
:1011D00081EC90E0938B828B82EC90E0958B848BFA
:1011E00086EC90E0978B868B118E128E138E148E68
:1011F000ECEEF2E0138212828DE191E09183808324
:1012000088E084838FEF858389E0868384E0878309
:1012100085E0808786E0818787E082871386148651
:1012200015861686178661E080E10E94FC03E6EED3
:10123000F2E011821082138212821582148250E031
:1012400040E067E271E0CF010E940708E0EEF2E0C3
:1012500011821082138212821582148250E040E0C3
:1012600067E271E0CF010C940708CF93DF93CDB70D
:10127000DEB72C970FB6F894DEBF0FBECDBF7894C3
:1012800084B5826084BD84B5816084BD85B582608B
:1012900085BD85B5816085BD80916E00816080933C
:1012A0006E001092810080918100826080938100A5
:1012B00080918100816080938100809180008160B5
:1012C000809380008091B10084608093B100809110
:1012D000B00081608093B00080917A008460809338
:1012E0007A0080917A00826080937A0080917A00FF
:1012F000816080937A0080917A00806880937A0080
:101300001092C100109242021092410210924002CB
:1013100010923F02109236021092350281E090E066
:101320000E942808182F90E080E00E942808E82EEC
:1013300083E090E00E942808F82E82E090E00E946E
:101340002808D82E85E090E00E942808082F84E025
:1013500090E00E9428083F2D2D2D309342022093CB
:101360004102902F9093400280933F02F12EF09221
:101370003602E0923502E0915302F091540282E08D
:101380008083E0914F02F09150021082E09151026F
:10139000F09152028FEC808310925B02E091570231
:1013A000F091580286E08083E0915502F091560258
:1013B000808180618083E0915502F09156028081A6
:1013C00088608083E0915502F091560280818068A8
:1013D0008083E0915502F091560280818F7D808359
:1013E00084E690E0A0E0B0E080934702909348024A
:1013F000A0934902B0934A0264E084E10E94FC0396
:101400008BE00E9488008CE00E94880082E00E94AD
:10141000880083E00E9488008AE00E94880081E0C2
:10142000809300018FE00E94480224EF31E0DC014C
:101430000E94B00E20E034E040E050E00E94150E23
:1014400020933702309338024093390250933A0286
:101450000E94AC0660E080E00E9498046EE38CEE8F
:1014600092E00E94A80010E000E0812C24E0922E7F
:10147000A12CB12C38E0232E312C8FB7F894209179
:101480003B0230913C0240913D0250913E0229873F
:101490003A874B875C878FBF8FE00E94480224EF1A
:1014A00031E0DC010E94B00EA50194010E94150EEE
:1014B00029013A0140923702509238026092390273
:1014C00070923A02C0903102D0903202E090330222
:1014D000F090340289859A85AB85BC858C159D0575
:1014E000AE05BF0558F120912F0230913002C9019D
:1014F000B1010E949C0EFC01EE0FFF1FEE0FFF1FBB
:10150000E15FFD4F51824082809135029091360219
:10151000938382832F5F3F4F3093300220932F02BB
:1015200090EDC90E97E0D91EE11CF11CC09231026A
:10153000D0923202E0923302F092340261E070E025
:1015400080E090E00E947F0283E492E00E944D01DF
:10155000892B09F40DC11A8219821C821B821E82FA
:101560001D8250E040E067E271E0CE0101960E94EA
:1015700007080E94FF0097FD1CC08F831886ED802E
:10158000FE80AFEFEA1AFA0AB701CE0101960E9477
:10159000DF07882371F329813A818D819E81BE0105
:1015A000695F7F4F820F931F0E94C510FE82ED82FC
:1015B000E0CF8091E6029091E702009709F494C190
:1015C00069817A816115710509F48CC14091E80245
:1015D0005091E9022D813E814217530708F482C1E0
:1015E0000E94C5108D819E819093EB028093EA0248
:1015F0001E821D82CE0101960E94D7071A8219828F
:101600001C821B821E821D826091E0027091E102A9
:101610006115710541F04091E4025091E502CE015F
:1016200001960E940708C090E602D090E702C1141C
:10163000D10409F470C1E090EA02F090EB02E114E9
:10164000F104B9F08D819E81E80EF91EB701CE013B
:1016500001960E94DF07882309F45DC129813A8140
:101660008D819E81B601820F931F0E94C510FE825C
:10167000ED8269817A816115710509F451C14D814D
:101680005E8180EE92E00E940708CE0101960E94E2
:10169000D7074091EA025091EB026091E602709107
:1016A000E70283E492E00E94AF00E090EA02F0904B
:1016B000EB02E114F10409F038C119828F818D30F9
:1016C00021F08D818D3009F053C08091E40290911A
:1016D000E502892B09F44CC0E090E002F090E102B1
:1016E0006EE871E0C7010E94BC10892B09F035C17A
:1016F00061E371E083E492E00E94580560EA71E0E2
:1017000083E492E00E94580585E991E00E94450536
:1017100040913702509138026091390270913A023B
:1017200083E492E00E94BF0469E971E083E492E0FF
:101730000E945805609135027091360283E492E070
:101740000E943F0565E271E083E492E00E94B004EC
:1017500050E040E067E271E080EE92E00E9407080E
:1017600050E040E067E271E086EE92E00E940708F8
:10177000702E602F80E00E9498046EE38CEE92E061
:101780000E94A8008FE00E94480224EF31E0DC01B3
:101790000E94B00EA50194010E94150E69017A0104
:1017A000C0923702D0923802E0923902F0923A02A7
:1017B00080910001882309F42DC163E08CE00E9430
:1017C0009804B701A6018CEE92E00E94BF048091BC
:1017D000370290913802A0913902B0913A020A97EB
:1017E000A105B10554F463E08DE00E94980464EA19
:1017F00071E08CEE92E00E94580562E08CE00E945D
:10180000980460913502709136028CEE92E00E944D
:101810003F05809135029091360262E00A970CF400
:101820002DC10E94EC020E94B402409137025091F7
:1018300038026091390270913A0280914102909190
:101840004202092E000CAA0BBB0B481759076A0766
:101850007B0774F080913F0290914002092E000CAA
:10186000AA0BBB0B84179507A607B7070CF010C18E
:1018700061E08AE00E94FC0164E170E080E090E0B9
:101880000E947F020E942303F82E882349F0672DCF
:1018900080E00E94980460E28CEE92E00E94A80032
:1018A00064E170E080E090E00E947F028FE6F8162D
:1018B00009F43AC195E7F91609F4ECC0A4E6FA1266
:1018C00001C10430110514F40F5F1F4F04301105DE
:1018D00009F0EDC080910001882309F4E8C00E945E
:1018E0003F07E5C00E946D0F89819A819093E702BE
:1018F0008093E6028B819C819093E9028093E802B9
:101900008D819E819093EB028093EA021A82198264
:101910001C821B826DCECE0101960E94C507A9CE06
:1019200080EE92E00E94C507B0CEB5E0EB16F10460
:1019300018F085E0E82EF12C6091E6027091E70244
:10194000A701CE0101960E94CC10E1E0F0E0EC0F7F
:10195000FD1FEE0DFF1D1082B1CE66EA71E0C701DA
:101960000E94BC10892B09F052C08BEA91E00E94C2
:10197000450583E492E00E944D01892BD1F7F12CBB
:10198000E12C83E492E00E944D01892BD1F383E4A2
:1019900092E00E94EB008D3059F5B70183E492E0AC
:1019A0000E943F0565E271E083E492E00E94B0048A
:1019B0008091410290914202E816F9063CF0809134
:1019C0003F02909140028E159F054CF483EC91E00C
:1019D0000E94450586EE91E00E944505D0CFF09229
:1019E0003602E092350285EF91E00E944505B0CEC7
:1019F0004AE04E9D90014F9D300D1124E82E880F36
:101A0000FF0850E3E51AF108E20EF31EBACF8AEFA1
:101A100091E0EBCF62E08CE00E949804B701A60150
:101A20008CEE92E00E94BF048091370290913802C0
:101A3000A0913902B0913A020A97A105B10554F478
:101A400062E08DE00E94980464EA71E08CEE92E01E
:101A50000E94580561E08CE00E9498046091350274
:101A6000709136028CEE92E00E943F058091350223
:101A7000909136020A970CF0D4CE61E08DE00E947E
:101A8000980464EA71E08CEE92E00E945805C9CE99
:101A900060E0EFCE809100010430110509F441C0EF
:101AA00001151105A1F18823A1F101501109602F41
:101AB00080E00E9498046EE38CEE92E00E94A80001
:101AC0000E9449036091350290E080E00E94070E79
:101AD0006091360281E090E00E94070E6091410221
:101AE00082E090E00E94070E6091420283E090E065
:101AF0000E94070E60913F0284E090E00E94070E72
:101B00006091400285E090E00E94070EB6CC811102
:101B1000CECF0150110958F60E94AC0610E000E04B
:101B2000C6CF02E010E0C3CF60E08CE00E94FC0171
:101B300060E08BE00E94FC0160E082E00E94FC011A
:101B400060E083E00E94FC01809100018823B1F1F4
:101B500001301105E1F17CF401151105A9F00E9495
:101B6000EC020E94B402809100018823E9F10E94F6
:101B7000AC06672D9DCF0230110599F00430110598
:101B800071F70E946E06EBCF61E070E080913F023A
:101B9000909140020E945A059093400280933F0228
:101BA000DECF62E070E080913502909136020E94B3
:101BB0005A059093360280933502D1CF013011053A
:101BC00081F304301105E9F20115110541F670E0C9
:101BD00060E080914102909142020E945A059093E8
:101BE000420280934102BBCF0E943F07C2CF80EEEA
:101BF00092E00E94D70786EE92E00C94D707F999FD
:101C0000FECF92BD81BDF89A992780B50895262F01
:101C1000F999FECF1FBA92BD81BD20BD0FB6F894D1
:101C2000FA9AF99A0FBE01960895052E97FB1EF4B5
:101C300000940E942C0E57FD07D00E946B0E07FCEB
:101C400003D04EF40C942C0E509540953095219570
:101C50003F4F4F4F5F4F08959095809570956195D8
:101C60007F4F8F4F9F4F08952F923F924F925F92D9
:101C70006F927F928F929F92AF92BF92CF92DF929C
:101C8000EF92FF920F931F93CF93DF93CDB7DEB701
:101C9000CA1BDB0B0FB6F894DEBF0FBECDBF099495
:101CA0002A88398848885F846E847D848C849B84EC
:101CB000AA84B984C884DF80EE80FD800C811B81FA
:101CC000AA81B981CE0FD11D0FB6F894DEBF0FBE29
:101CD000CDBFED010895A1E21A2EAA1BBB1BFD0189
:101CE0000DC0AA1FBB1FEE1FFF1FA217B307E407FB
:101CF000F50720F0A21BB30BE40BF50B661F771F53
:101D0000881F991F1A9469F7609570958095909532
:101D10009B01AC01BD01CF010895A29FB001B39F0B
:101D2000C001A39F700D811D1124911DB29F700DE4
:101D3000811D1124911D089597FB072E16F4009420
:101D400007D077FD09D00E94B70E07FC05D03EF4FE
:101D5000909581959F4F0895709561957F4F089557
:101D60000E948D0EB7FF0895821B930B0895AA1B46
:101D7000BB1B51E107C0AA1FBB1FA617B70710F076
:101D8000A61BB70B881F991F5A95A9F780959095A8
:101D9000BC01CD010895EE0FFF1F0590F491E02DD9
:101DA00009940F931F93CF93DF938230910510F422
:101DB00082E090E0E0910603F091070330E020E03C
:101DC000B0E0A0E0309799F42115310509F44AC03C
:101DD000281B390B24303105D8F58A819B81611588
:101DE000710589F1FB0193838283FE0111C040815B
:101DF00051810281138148175907E0F048175907AC
:101E000099F4109761F012960C93129713961C9305
:101E10003296CF01DF91CF911F910F9108950093DA
:101E2000060310930703F4CF2115310551F0421733
:101E3000530738F0A901DB019A01BD01DF01F80168
:101E4000C1CFEF01F9CF9093070380930603CDCF65
:101E5000FE01E20FF31F81939193225031093983E0
:101E60002883D7CF2091040330910503232B41F41D
:101E70002091030130910401309305032093040362
:101E800020910101309102012115310541F42DB756
:101E90003EB74091050150910601241B350BE0919E
:101EA0000403F0910503E217F307A0F42E1B3F0B88
:101EB0002817390778F0AC014E5F5F4F24173507BC
:101EC00048F04E0F5F1F5093050340930403819326
:101ED00091939FCFF0E0E0E09CCFCF93DF9300970A
:101EE000E9F0FC01329713821282A0910603B091AF
:101EF0000703ED0130E020E01097A1F4208131814B
:101F0000820F931F2091040330910503281739078E
:101F100009F061C0F0930503E0930403DF91CF91D2
:101F20000895EA01CE17DF07E8F54A815B819E013B
:101F300041155105B1F7E901FB83EA8349915991B4
:101F4000C40FD51FEC17FD0761F4808191810296C3
:101F5000840F951FE90199838883828193819B83F4
:101F60008A83F0E0E0E012968D919C9113970097A0
:101F7000B9F52D913C911197CD010296820F931FD7
:101F800020910403309105032817390739F630975B
:101F900051F51092070310920603B0930503A09326
:101FA0000403BCCFD383C28340815181840F951F2A
:101FB000C817D90761F44E5F5F4F88819981480F38
:101FC000591F518340838A819B819383828321158A
:101FD000310509F0B0CFF0930703E09306039ECFDD
:101FE000FD01DC01C0CF13821282D7CFB0E0A0E0A8
:101FF000ECEFFFE00C94360E8C01009751F4CB010E
:102000000E94D10E8C01C801CDB7DEB7E0E10C947F
:10201000520EFC01E60FF71F9C0122503109E21716
:10202000F30708F49DC0D901CD91DC911197C61733
:10203000D70798F0C530D10530F3CE010497861745
:10204000970708F3C61BD70B2297C193D1936D93C3
:102050007C93CF010E946D0FD6CF5B01AC1ABD0AF5
:102060004C018C0E9D1EA0910603B0910703512CCC
:10207000412CF12CE12C109731F5809104039091C3
:1020800005038815990509F05CC04616570608F047
:1020900058C08091010190910201009741F48DB7E1
:1020A0009EB74091050150910601841B950BE817DE
:1020B000F90708F055C0F0930503E0930403F90114
:1020C00071836083A0CF8D919C91119712966C9033
:1020D000129713967C901397A815B90559F56C01C2
:1020E00042E0C40ED11CCA14DB0420F1AC014A1931
:1020F0005B09DA011296159780F062827382518330
:102100004083D9016D937C93E114F10471F0D70100
:102110001396FC93EE93129776CF22968C0F9D1F09
:10212000F90191838083F301EFCFF0930703E093EC
:10213000060369CF4816590608F42C017D01D30126
:102140009ACFCB010E94D10E7C01009749F0AE01DD
:10215000B8010E94B310C8010E946D0F870153CFD0
:1021600010E000E050CFFB01DC0102C001900D92B5
:1021700041505040D8F70895FB01DC018D9101904A
:1021800080190110D9F3990B0895FB01DC0101902E
:102190000D920020E1F70895FB01DC014150504011
:1021A00048F001900D920020C9F701C01D924150E6
:1021B0005040E0F7089510E0CDE5D0E004C0FE0106
:1021C0000E94CB0E2196CE35D107C9F7F894FFCFE8
:1021D00001000008038000000000008F01AF00DC58
:1021E00000DC014D01EB003F0100000000AA04AF3C
:1021F00000B102A7000D0A0054454D50206973201C
:102200000063757272656E74006661766F726974D0
:10221000650070726573732072696768742D3E0083
:102220006E6F206D6F7265206C6F6773006D6178E3
:102230002054656D703A20006D696E2054656D7094
:102240003A20006661762054656D703A200063750F
:1022500072722054656D703A20006C6F670074656F
:102260006D703F0D00666176002020202020202028
:102270002020202020007365740D00656E74657247
:10228000206661766F726974652064656772656542
:10229000203A004572726F723A206E756D626572F7
:1022A0003E6D6178206F72206E756D6265723C6D57
:1022B000696E2E2E2E00656E7465722061676169ED
:1022C0006E2E2E2E00646F6E650077726F6E672023
:0A22D000696E7075742E2E2E00004A
:00000001FF
