:100000000C9463000C948B000C948B000C948B006C
:100010000C948B000C948B000C948B000C948B0034
:100020000C948B000C948B000C948B000C94051298
:100030000C948B000C948B000C948B000C948B0014
:100040000C949C100C948B000C946A100C9444102B
:100050000C948B000C948B000C948B000C948B00F4
:100060000C94E6100C948B00000000002400270084
:100070002A0000000000250028002B0000000000DE
:1000800023002600290004040404040404040202DA
:100090000202020203030303030301020408102007
:1000A0004080010204081020010204081020000012
:1000B0000008000201000003040700000000000027
:1000C00000008B133C1B11241FBECFEFD8E0DEBF16
:1000D000CDBF25E0A8E9B2E001C01D92A035B2076E
:1000E000E1F712E0A0E0B1E0E8E1FEE302C0059034
:1000F0000D92A839B107D9F710E0C2E6D0E004C0EC
:100100002197FE010E94FE1CC136D107C9F70E944B
:1001100018140C94FF1E0C9400000895089508957F
:10012000DC01ED91FC910190F081E02D0994DB015F
:1001300014964D915C9115976D917C91DC01ED9138
:10014000FC910280F381E02D0994AF92BF92CF928F
:10015000DF92EF92FF920F931F93CF93DF936C0187
:100160007B018B01040F151FEB015E01AE18BF0868
:10017000C017D10759F06991D601ED91FC9101901A
:10018000F081E02DC6010995892B79F7C501DF9132
:10019000CF911F910F91FF90EF90DF90CF90BF9084
:1001A000AF900895FC01538D448D252F30E0842FAE
:1001B00090E0821B930B541710F0CF96089501978F
:1001C0000895FC01918D828D981761F0A28DAE0F7C
:1001D000BF2FB11D5D968C91928D9F5F9F73928F03
:1001E00090E008958FEF9FEF0895FC01918D828D2F
:1001F000981731F0828DE80FF11D858D90E00895FC
:100200008FEF9FEF0895FC01918D228D892F90E053
:10021000805C9F4F821B91098F73992708958FE40B
:1002200094E00E94030121E0892B09F420E0822F51
:10023000089580E090E0892B29F00E940F01811140
:100240000C9400000895FC01A48DA80FB92FB11DD6
:10025000A35ABF4F2C91848D90E001968F739927FC
:10026000848FA689B7892C93A089B1898C918370DA
:1002700080648C93938D848D981306C00288F389D3
:10028000E02D80818F7D80830895EF92FF920F9300
:100290001F93CF93DF93EC0181E0888F9B8D8C8D32
:1002A00098131AC0E889F989808185FF15C09FB726
:1002B000F894EE89FF896083E889F98980818370E9
:1002C000806480839FBF81E090E0DF91CF911F9198
:1002D0000F91FF90EF900895F62E0B8D10E00F5FB9
:1002E0001F4F0F731127E02E8C8D8E110CC00FB68F
:1002F00007FCFACFE889F989808185FFF5CFCE0127
:100300000E942301F1CFEB8DEC0FFD2FF11DE35A7D
:10031000FF4FF0829FB7F8940B8FEA89FB898081A9
:100320008062CFCFCF93DF93EC01888D8823B9F023
:10033000AA89BB89E889F9898C9185FD03C08081F0
:1003400086FD0DC00FB607FCF7CF8C9185FFF2CF6D
:10035000808185FFEDCFCE010E942301E9CFDF919F
:10036000CF910895833081F028F4813099F0823064
:10037000A9F008958730A9F08830C9F08430B1F42D
:10038000809180008F7D03C0809180008F77809363
:100390008000089584B58F7784BD089584B58F7DDE
:1003A000FBCF8091B0008F778093B000089580914B
:1003B000B0008F7DF9CFCF93DF93282F30E0F90184
:1003C000E255FF4F8491F901E656FF4FD491F901B0
:1003D000EA57FF4FC491CC23A1F081110E94B201D2
:1003E000EC2FF0E0EE0FFF1FE458FF4FA591B49102
:1003F000EC91ED2381E090E009F480E0DF91CF9172
:10040000089580E090E0FACF1F93CF93DF93282FD9
:1004100030E0F901E255FF4F8491F901E656FF4FB4
:10042000D491F901EA57FF4FC491CC23A9F0162FBC
:1004300081110E94B201EC2FF0E0EE0FFF1FEE5889
:10044000FF4FA591B4918FB7F894EC91111108C0AA
:10045000D095DE23DC938FBFDF91CF911F9108955C
:10046000DE2BF8CFCF93DF9390E0FC01E656FF4FF1
:1004700024918A579F4FFC0184918823C9F090E012
:10048000880F991FFC01E859FF4FA591B491FC0119
:10049000EE58FF4FC591D49161110DC09FB7F894EC
:1004A0008C91209582238C938881282328839FBF59
:1004B000DF91CF910895623051F49FB7F8943C9149
:1004C000822F809583238C93E8812E2BEFCF8FB7DB
:1004D000F894EC912E2B2C938FBFEACFCF93DF9320
:1004E000C0E4D5E061E089810E94320260E0898148
:1004F0000E94040261E088810E94040261E0898117
:100500000E94040260E08981DF91CF910C94320255
:1005100060E0809141050E94320261E080914005D7
:100520000E940402809141050E94DB010197D1F3F2
:1005300060E0809140050C9404028E5080648093AA
:100540007C0080917A00806480937A0080917A00A8
:1005500086FDFCCF809178009091790008953FB797
:10056000F8948091650390916603A0916703B09120
:10057000680326B5A89B05C02F3F19F00196A11D61
:10058000B11D3FBFBA2FA92F982F8827BC01CD01DD
:10059000620F711D811D911D42E0660F771F881F3C
:1005A000991F4A95D1F708958F929F92AF92BF926B
:1005B000CF92DF92EF92FF924B015C010E94AF025B
:1005C0006B017C010E94AF026C197D098E099F09A5
:1005D000683E734081059105A8F321E0821A9108D5
:1005E000A108B10888EEC80E83E0D81EE11CF11CFA
:1005F00081149104A104B10429F7FF90EF90DF90DA
:10060000CF90BF90AF909F908F90089520913D0321
:10061000260F3327331F21323105ECF420912504B6
:10062000FC0190E080E0243069F082E00895A09120
:100630003D032191AC01435E5C4FA40FB52FB11D6A
:100640002C930196861798F380913D03680F609371
:100650003D0380E0089581E008951092250481E033
:10066000809324041092FF0361E082E10E9404025F
:1006700061E083E10E940402E9EBF0E080818E7F7B
:10068000808380818D7F808388E48093B80085E4B7
:100690008093BC000895CF93DF9391E090931C0367
:1006A0008823B9F0C091B800D091BA008091BC0005
:1006B0008A7B8093BC0060E082E10E94040260E0DB
:1006C00083E10E9404020E942D03D093BA00C093DC
:1006D000B800DF91CF9108958F929F92AF92BF9211
:1006E000CF92DF92EF92FF920F931F93CF93DF93FE
:1006F000D0914E04D13208F0D7C0182FC0914D04CC
:100700000E94AF026B017C018091250481116BC0B6
:1007100082E080932504109324048FEF80932304B8
:1007200010922204D0932104ADE2B4E0E1E0F4E0C1
:1007300080E0D81391C01092000480910004CC0F87
:10074000C82BC09300048091FF03813009F088C05A
:100750001092FF030E94AF026B017C0180910004A4
:100760008093BB008091270490912804A0912904D4
:10077000B0912A04892B8A2B8B2BA1F00E94AF0207
:1007800000912704109128042091290430912A0413
:100790006C197D098E099F09061717072807390765
:1007A00008F442C08091BC0083FDD8CF85EC8093D3
:1007B000BC000E94AF026B017C0180912504823055
:1007C00009F450C0809123048F3F09F46FC08091D9
:1007D0002304803209F46CC080912304803309F42F
:1007E00069C084E026C08091270490912804A091DC
:1007F0002904B0912A04892B8A2B8B2B09F484CFEE
:100800000E94AF028090270490902804A0902904B1
:10081000B0902A046C197D098E099F0986169706E7
:10082000A806B90608F070CF809126040E944B03F9
:1008300085E010922C0410924E0410922B04DF914C
:10084000CF911F910F91FF90EF90DF90CF90BF90CD
:10085000AF909F908F9008959D9191938F5F69CFF6
:1008600085EEA5CF8091270490912804A0912904BA
:10087000B0912A04892B8A2B8B2B09F49ECF0E94DE
:10088000AF0200912704109128042091290430918F
:100890002A046C197D098E099F0906171707280776
:1008A000390708F08ACFC0CF81E0C3CF80E0C1CF45
:1008B00082E0BFCF83E0BDCF0895E0916E038091C9
:1008C0006D03E81730F4F0E0E450FD4F808190E0D4
:1008D00008958FEF9FEF089590916E0380916D03BF
:1008E0002FEF3FEF981748F4E92FF0E0E450FD4F69
:1008F000208130E09F5F90936E03C901089580913D
:100900006D0390916E03891B990B0895CF92DF922E
:10091000EF92FF920F931F93CF93DF937C01CB0154
:100920008A0120912B04222389F0EB016B01C40E74
:10093000D51ECC15DD0569F06991D701ED91FC91CB
:100940000190F081E02DC7010995F3CF642F0E943B
:100950000603C801DF91CF911F910F91FF90EF9097
:10096000DF90CF900895CF93DF931F92CDB7DEB77E
:10097000698320912B042223F9F020914E04203228
:1009800058F021E030E0FC013383228390E080E0E6
:100990000F90DF91CF91089580912C04E82FF0E023
:1009A000E35DFB4F998190838F5F80932C0480934C
:1009B0004E0481E090E0ECCF61E0CE0101960E9410
:1009C0000603F7CF90E080E008958EE00E949D023C
:1009D00084369105A4F08A3F91059CF0823C21E089
:1009E00092078CF08A3822E092077CF0803223E074
:1009F00092076CF0863B934064F080E0089582E7B4
:100A000008958CE6089585E7089584E608958FE6B5
:100A1000089583E608950E94E5048111FCCF64E106
:100A200070E080E090E00E94D4020E94E504811111
:100A3000F2CF08958091730390917403009731F47D
:100A40008091ED0384608093ED03089581309105DA
:100A500081F480919B028F5F80939B028634A9F77B
:100A600082E090E0909374038093730310929B0252
:100A70000895029751F78091ED038B7FE4CF809129
:100A8000ED0381FF47C08CE00E94DB01892BB1F4AC
:100A900061E083E00E9404021092720310927103DD
:100AA0008DE00E94DB01892B49F561E08BE00E941B
:100AB00004021092700310926F03089580917103E5
:100AC00090917203009739F481E090E09093720363
:100AD00080937103E5CF019719F780919A028F5F98
:100AE000823319F080939A02DBCF10929A0260E071
:100AF00083E00E94040282E090E0E8CF80916F03DF
:100B000090917003009739F481E090E09093700326
:100B100080936F0308950197E9F7809199028F5FA1
:100B2000843619F08093990208951092990260E03A
:100B30008BE00E94040282E090E0E8CF0F931F93C5
:100B4000CF93DF93082F162FD42FC8E06D2F661F89
:100B50006627661F802F0E940402DD0F61E0812F4F
:100B60000E94040260E0812F0E940402C15071F7CC
:100B7000DF91CF911F910F9108951F93CF93DF9332
:100B8000182FC0E4D5E061E089810E94320261E063
:100B900089810E94040261E088810E94040260E071
:100BA00089810E94040260E088810E940402412F32
:100BB00068818981DF91CF911F910C949E051F93CD
:100BC000CF93DF93182FC0E4D5E061E089810E94C4
:100BD0003202412F68818981DF91CF911F910C945E
:100BE0009E05CF93DF9390914905992349F194EEA7
:100BF0009093BC009091BC0097FFFCCF90ED909338
:100C0000BB0094EC9093BC009091BC0097FFFCCF8C
:100C10008093BB0084EC8093BC008091BC0087FF74
:100C2000FCCF6093BB0084EC8093BC008091BC003F
:100C300087FFFCCF84E98093BC00DF91CF910895BA
:100C4000C62FD82F80ED0E94BD050E9488028D2FEF
:100C50000E94DF050E9488028C2F0E94DF050E94FF
:100C60008802DF91CF910C946E02BF92CF92DF92F7
:100C7000EF92FF920F931F93CF93DF93CDB7DEB721
:100C800028970FB6F894DEBF0FBECDBF80914905FF
:100C9000882309F49EC084EE8093BC008091BC0040
:100CA00087FFFCCF80ED8093BB0084EC8093BC0079
:100CB0008091BC0087FFFCCF1092BB0084EC809336
:100CC000BC008091BC0087FFFCCF84EE8093BC0009
:100CD0008091BC0087FFFCCF81ED8093BB0084EC4A
:100CE0008093BC008091BC0087FFFCCFE2E4F5E07C
:100CF00089E495E034EC3093BC002091BC0027FFE0
:100D0000FCCF2091BB0021938E179F07A1F784E8A9
:100D10008093BC008091BC0087FFFCCF84E9809366
:100D2000BC0040914205842F829587705AE04F7035
:100D3000859F400D112430914305832F8295877044
:100D40003F70859F300D112460914405262F2F7030
:100D5000862F90E067FFAAC065FB882780F9FCE03A
:100D60008F9F200D1124F09145055091460560910B
:100D7000470580914805952F929597707AE05F70AE
:100D8000979F500D1124E62FE295E7706F70E79F53
:100D9000600D1124982F92959F708F70979F800DF2
:100DA000112490E08053984F9F838E83782F8F81FA
:100DB0009F2F28960FB6F894DEBF0FBECDBFDF91F0
:100DC000CF911F910F91FF90EF90DF90CF90BF9048
:100DD000089580ED0E94BD050E94880280E00E9477
:100DE000DF050E94880281ED0E94BD050E948802F5
:100DF000E2E4CE2EE5E0DE2E10E000E060E080913F
:100E000041050E94320277E0E72EF12CB12C61E01F
:100E1000809140050E940402809141050E94DB01FF
:100E200099270E2C01C0880F0A94EAF7B82A60E0CF
:100E3000809140050E94040281E0E81AF10838F729
:100E4000F601B1926F018091410561E00630110514
:100E500021F10E94320260E0809140050E9404026C
:100E600060E0809141050E94040261E080914005AC
:100E70000E94040260E0809140050E94040260E04C
:100E8000809141050E9432020F5F1F4F073011050C
:100E900009F0B4CF0E946E0244CF0E94320260E09B
:100EA000809140050E94040261E0DBCF64E09595EB
:100EB00087956A95E1F78370859F200D112453CFA4
:100EC000CF93DF93CDB7DEB728970FB6F894DEBF88
:100ED0000FBECDBF0E9435068091EE03281720F487
:100EE0008091EF03281720F480917503882331F156
:100EF0008FE00E949D0224EF31E0DC010E94F71C8C
:100F000020E034E040E050E00E94D81C2093E90348
:100F10008091ED039091EC03492F421B550B141661
:100F2000150674F480618093ED0328960FB6F8944B
:100F3000DEBF0FBECDBFDF91CF9108958091ED034D
:100F40008F7EF1CFCF93DF93CDB7DEB728970FB663
:100F5000F894DEBF0FBECDBF0E9435068091EE0330
:100F6000281720F48091EF03281728F48091750347
:100F7000882309F464C08FE00E949D0224EF31E0D1
:100F8000DC010E94F71C20E034E040E050E00E94C9
:100F9000D81C2093E9038091EC03281B330B80912C
:100FA0009D0290919E0212161306E4F5019721F01E
:100FB00010929E0210929D0280919D0290919E023D
:100FC000892BB1F48091ED03982F90629093ED03FB
:100FD00090919C029F5F90939C029832D1F480661E
:100FE0008093ED0381E090E090939E0280939D02B8
:100FF00080919D0290919E0281309105F1F41092B2
:101000009C028091ED0325303105ACF0806880931F
:10101000ED0328960FB6F894DEBF0FBECDBFDF916B
:10102000CF910895029741F282E090E090939E0262
:1010300080939D02C1CF8F77EACF029751F78091BD
:10104000ED038F71E4CFCF93DF93EC0160E08E81ED
:101050000E94040261E08E810E94040260E08E81A1
:101060000E9404028BE891E00197F1F7DF91CF91A4
:101070000895CF92DF92EF92FF920F931F93CF9339
:10108000DF936C017C0187E0E80EF11CD0E0C0E04A
:10109000062F10E0B8010C2E02C0759567950A94D2
:1010A000E2F76170F70181917F010E9404022196AD
:1010B000C430D10579F7C601DF91CF911F910F910F
:1010C000FF90EF90DF90CF900C942308CF92DF92A7
:1010D000EF92FF920F931F93CF93DF93EC01F62EC5
:1010E000642F8C810E9404028D818F3F19F060E093
:1010F0000E9404020F2D10E08F8584FF25C06E0131
:1011000087E0C80ED11CF12CE12CB8010E2C02C0D6
:10111000759567950A94E2F76170F60181916F0108
:101120000E940402FFEFEF1AFF0A88E0E816F104BC
:1011300061F7CE01DF91CF911F910F91FF90EF905A
:10114000DF90CF900C942308B80184E075956795E3
:101150008A95E1F7CE010E9439086F2DCE01DF910B
:10116000CF911F910F91FF90EF90DF90CF900C9453
:10117000390840E0682F88E295E00C94660881E029
:101180000E94B9088BE39FE10197F1F70895CF938F
:10119000DF93613029F0909137059860909337057F
:1011A00060933B0510923C0590E490933D0580933D
:1011B0003E05805C80933F0561E080912C050E9494
:1011C000320280912D058F3F19F061E00E943202BA
:1011D00061E080912E050E943202C8E2D5E09E01B6
:1011E000285235408091370584FD0BC084E090E0A3
:1011F00021962817390744F461E08E810E9432025B
:10120000EECF88E090E0F4CF8BE39DE00197F1F71B
:1012100060E080912C050E94040260E080912E0520
:101220000E94040280912D058F3F19F060E00E941A
:1012300004028091370584FD34C063E088E295E0C4
:101240000E943908CBE4D6E4CE010197F1F763E0C0
:1012500088E295E00E9439082197F1F763E088E27F
:1012600095E00E94390883E592E00197F1F762E08A
:1012700088E295E00E9439088091370580620E94DB
:10128000B90884E0809338058CE00E94B9080E9478
:10129000BF0882E08093390586E0DF91CF910C94FE
:1012A000B90880620E94B9088BE496E40197F1F7CF
:1012B0008091370580620E94B90883E592E001972A
:1012C000F1F78091370580620E94B908D5CF64306C
:1012D00008F063E090913B05691710F06FEF690F1C
:1012E000E62FF0E0E85DFA4F9489890F80680C944E
:1012F000B90841E00E94660881E090E00895FB0192
:1013000001900020E9F73197AF01461B570BDC0134
:10131000ED91FC910280F381E02D09948F929F92D0
:10132000AF92BF92EF92FF920F931F93CF93DF93F1
:10133000CDB7DEB7A1970FB6F894DEBF0FBECDBF15
:101340007C01FA01CB0119A2223008F42AE08E01B7
:101350000F5D1F4F822E912CB12CA12CBF01A50136
:1013600094010E94B61CF901CA016A300CF5605D57
:10137000D8016E938D01232B242B252B79F790E038
:1013800080E0109721F0BD01C7010E947F09A1965E
:101390000FB6F894DEBF0FBECDBFDF91CF911F9186
:1013A0000F91FF90EF90BF90AF909F908F90089516
:1013B000695CDECF462F50E070E060E02AE00C94DC
:1013C0008E09CF93DF93682F8FE494E00E94DA09AF
:1013D000EC0166E371E08FE494E00E947F098C0FDA
:1013E0009D1FDF91CF910895CF92DF92EF92FF92F0
:1013F0000F931F93CF93DF9377FF1DC06A017B018B
:10140000EC016DE20E9490008C0144275527BA013F
:101410004C195D096E097F092AE0CE010E948E09F0
:10142000800F911FDF91CF911F910F91FF90EF904F
:10143000DF90CF9008952AE0DF91CF911F910F9117
:10144000FF90EF90DF90CF900C948E09AB01770F57
:10145000660B770B0C94F409CF93DF93BC018FE4F8
:1014600094E00E947F09EC0166E371E08FE494E070
:101470000E947F098C0F9D1FDF91CF9108950C94DE
:101480007F0960E082E00E94670969E371E088E219
:1014900095E00E943F0A61E082E00E9467096FE3E5
:1014A00071E088E295E00E943F0A62E082E00E94DB
:1014B000670965E471E088E295E00E943F0A63E015
:1014C00082E00E94670962E571E088E295E00C9491
:1014D0003F0A0F931F93CF93DF93EC01888199818B
:1014E000009759F02A813B812617370730F081E0B9
:1014F000DF91CF911F910F9108958B016F5F7F4F07
:101500000E94291E009759F0998388831B830A83C0
:101510002C813D81232B59F7FC011082E8CF80E01C
:10152000E7CFEF92FF920F931F93CF93DF93411575
:101530005105B1F07B01EC010C811D81040F151FD9
:10154000B8010E94690A882361F0288139818C8161
:101550009D81B701820F931F0E94F81E1D830C838B
:1015600081E0DF91CF911F910F91FF90EF9008954F
:10157000EF92FF920F931F93CF93DF9300D000D091
:10158000CDB7DEB77C01862F4AE08E010F5F1F4F7B
:10159000B80190E00E94BF1BF80101900020E9F71C
:1015A0003197AF01401B510BB801C7010E94910A4E
:1015B0000F900F900F900F90DF91CF911F910F918F
:1015C000FF90EF900895FB0101900020E9F731971B
:1015D000AF01461B570B0C94910ACF93DF93EC019C
:1015E00088819981009711F00E94A01D19821882AC
:1015F0001D821C821B821A82DF91CF910895EF9287
:10160000FF920F931F93CF93DF93EC017B018A012D
:10161000BA010E94690A81110BC0CE010E94ED0A35
:10162000CE01DF91CF911F910F91FF90EF90089520
:101630001D830C83B701888199810E94F81EF0CF29
:10164000FB0101900020E9F73197AF01461B570BD2
:101650000C94FF0ACF93DF93EC01FB0186179707E9
:1016600049F0608171816115710541F044815581B6
:101670000E94FF0ACE01DF91CF9108950E94ED0AEA
:10168000F9CFFC011182108213821282158214821A
:101690006115710551F0FB0101900020E9F73197C8
:1016A000AF01461B570B0C94FF0A0895FC01808183
:1016B0009181009711F00C94A01D089585ED809301
:1016C000BC008091270490912804A0912904B09136
:1016D0002A040796A11DB11D23E0B695A7959795FD
:1016E00087952A95D1F72091BC0024FD03C0109264
:1016F00025040895409127045091280460912904FD
:1017000070912A04452B462B472B69F30097A105BE
:10171000B10541F025E32A95F1F700000197A109F1
:10172000B109E1CF809126040C944B030C94561C14
:101730000F931F93CF93DF93CDB7DEB72E970FB6DE
:10174000F894DEBF0FBECDBF8C010E940B050E9436
:10175000BF080E94350629833A8368E371E0CE0111
:1017600009960E94410B6981CE0109960E94B80A30
:101770006DEE71E0CE0109960E94E30A6A81CE0106
:1017800009960E94B80A809176039091770343E00E
:10179000880F991F4A95E1F7012B09F068C061E0B5
:1017A00009960E94960BE0917603F091770333E05F
:1017B000EE0FFF1F3A95E1F7E858FC4F81E0878371
:1017C0008681813039F48093EA038091ED0388604B
:1017D0008093ED03809175038F5F80937503109262
:1017E0007403109273038091ED0382608093ED0384
:1017F0006CE571E08FE494E00E943F0AE09176038B
:10180000F091770323E0EE0FFF1F2A95E1F7E858E8
:10181000FC4F40815181628173818FE494E00E948A
:10182000F40964E671E08FE494E00E943F0ABE018F
:10183000675F7F4F8FE494E00E94970064E671E059
:101840008FE494E00E943F0A88E691E00E942C0A0F
:10185000CE0109960E94560B2E960FB6F894DEBF65
:101860000FBECDBFDF91CF911F910F91089560E022
:1018700009960E94960BE0917603F091770393E02E
:10188000EE0FFF1F9A95E1F7E858FC4F178286810B
:10189000813039F41092EA038091ED03877F8093C1
:1018A000ED03609175036150609375038FE494E0DC
:1018B0000E94DA098091750381110BC08091ED03BC
:1018C0008D7F8093ED0381E090E09093740380938B
:1018D00073036CE571E08FE494E00E943F0AE091AD
:1018E0007603F091770383E0EE0FFF1F8A95E1F70F
:1018F000E858FC4F40815181628173818FE494E00C
:101900000E94F40964E671E08FE494E00E943F0ACB
:10191000BE01675F7F4F8FE494E00E94970064E60A
:1019200071E08FE494E00E943F0A8BE691E08ECF55
:101930000C944E1C8F929F92AF92BF92CF92DF92E7
:10194000EF92FF920F931F93CF93DF9390E080E08D
:101950000E94980C8093E80381E090E00E94980C2C
:101960008093EC036FE671E08FE494E00E943F0AFD
:101970008091EC030E94E109C8E7D3E002E010E0A7
:101980008091E8038017110609F00CF48BC0C801A0
:101990000E94980CA82EC80101960E94980C982EBF
:1019A000C80102960E94980C882EC80103960E94D6
:1019B000980CC82EC80104960E94980CE82EC80105
:1019C00005960E94980CF12CFE2CEE24E80EF11CDA
:1019D000C80106960E94980CD82EC80107960E944E
:1019E000980C492D50E070E060E0762F652F542F61
:1019F00044274A0D511D611D711D912CB12CA12C44
:101A0000540199248824480D591D6A1D7B1D8C2C76
:101A1000912CB12CA12CB82CAA2499248824480DEF
:101A2000591D6A1D7B1D488359836A837B83FD8210
:101A3000EC82DE828F8391E0D91204C0813011F4F0
:101A40008093EA038F81813049F4809175038F5F21
:101A50008093750310927403109273034881598127
:101A60006A817B818FE494E00E94F40966E371E06F
:101A70008FE494E00E947F096C817D818FE494E083
:101A80000E94260A66E371E08FE494E00E947F09D9
:101A90008E810E94E1098F810E94E109085F1F4F3A
:101AA00028966ECF00EF13E0C8E7D0E0CE010E9489
:101AB000980CF80181938F012196C638D105B1F7B2
:101AC00080917503811106C082E090E090937403C9
:101AD00080937303DF91CF911F910F91FF90EF904F
:101AE000DF90CF90BF90AF909F908F9008957F929E
:101AF0008F929F92AF92BF92CF92DF92EF92FF921E
:101B00000F931F93CF93DF93CDB7DEB7C853D14068
:101B10000FB6F894DEBF0FBECDBF8FE494E00E94F5
:101B20000301892B09F46DC08FE494E00E94E10069
:101B3000182F8093FB021A8219821C821B821E823C
:101B40001D8262E275E0CE0101960E942A0BC35D00
:101B5000DE4F1883CD52D140C25DDE4F1882CE5287
:101B6000D14041E050E0BE01635D7E4FCE01019661
:101B70000E94910A811104C0CE0101960E94ED0AD3
:101B8000BE016F5F7F4F82E295E00E942A0BCE017B
:101B900001960E94560B612F8FE494E00E94900002
:101BA0008091FB028D3069F56091220570912305CB
:101BB000CE0101960E94F81E69E771E0CE01019600
:101BC0000E94931B9093FA028093F90210E0809197
:101BD000F9029091FA020097A1F0E12FF0E0EE0FE8
:101BE000FF1FE156FD4F918380831F5F69E771E01E
:101BF00090E080E00E94931B9093FA028093F90298
:101C0000E6CF80919F029091A002892B09F4A0C198
:101C10005FE9E52E52E0F52E01E010E0F70160816A
:101C200071816115710509F48BC1CE018D5C9E4FE8
:101C30000E94410B0130110509F073C0C95CDE4FF1
:101C4000C880D980C753D14034E0A32EB12CF4E032
:101C5000CF16D10420F0560144E0C42ED12C68E305
:101C600071E0CE0101960E94410BC95CDE4F0881F4
:101C70001981C753D140C016D10640F5A016B10650
:101C800008F48501CD5CDE4FE881F981C353D14072
:101C9000E00FF11FB0801082CD5CDE4F688179814A
:101CA000C353D1406C0D7D1DCE01019661157105A8
:101CB00009F4EDC00E94200BCD5CDE4F8881998134
:101CC000C353D140080F191FF801B082CD5CDE4F1D
:101CD00088819981C353D140009709F4DDC069819F
:101CE0007A816115710509F4D5C0CB5CDE4F48815E
:101CF0005981C553D1402D813E814217530708F4C5
:101D0000C9C00E94F81E8D819E81C95CDE4F9983F7
:101D10008883C753D1401E821D82CE0101960E9446
:101D2000560BF70162817381CE01835D9E4F0E9445
:101D3000410BF70164817581CE0101960E94410B30
:101D4000A980BA80A114B10439F00D811E8165010A
:101D50000115110509F0BEC08D819E81D12C892B02
:101D6000A9F009811A816BE771E0C8010E94EF1E9A
:101D7000DD24D394892B51F06FE272E0C8010E94F8
:101D8000EF1E21E0892B09F020E0D22ECD5CDE4F42
:101D900088819981C353D1400E946C1B4B015C0127
:101DA000C35DDE4F88819981CD52D1400E944E1B88
:101DB000C82E792E90E080E00E94980C8093E80372
:101DC000082F10E0682DC80102960E94960B9927F3
:101DD000B7FC9A958B2D7A2D692DC80103960E9428
:101DE000960BB501992777FD9095892FC801049628
:101DF0000E94960B6B2D772788279927C801059697
:101E00000E94960B0091E80310E0672DC80106962A
:101E10000E94960B6C2DC80107960E94960B80912C
:101E2000E80390E06D2D08960E94960B8091E803E0
:101E300090E060E009960E94960B6091E803685F6D
:101E40006093E80390E080E00E94960B62E370E00C
:101E500080E090E00E94D402F70111821082138288
:101E6000128215821482CE0101960E94560BCE0179
:101E7000835D9E4F0E94560BCE018D5C9E4F0E944B
:101E8000560BF6E0EF0EF11C02E010E0C7CE0E9408
:101E9000ED0A12CF0E94A01D89819A81CD5CDE4F90
:101EA00099838883C353D1408B819C81CB5CDE4F67
:101EB00099838883C553D1408D819E81C95CDE4F53
:101EC00099838883C753D1401A8219821C821B824E
:101ED00022CF64014601FFEF8F1A9F0AF60180812D
:101EE000082E000C990B0E94321C892B91F701508F
:101EF00011090A0D1B1DF8018081082E000C990B99
:101F00000E94321C892B31F00C151D0518F0015070
:101F10001109F1CFA8014F5F5F4F4C195D095E8336
:101F20004D83AC14BD0420F4B601C5010E94E61E29
:101F3000E981FA818D819E81E80FF91F10820CCF13
:101F400068E371E082E295E00E94200B0E949A0C07
:101F5000C85CDE4F0FB6F894DEBF0FBECDBFDF9179
:101F6000CF911F910F91FF90EF90DF90CF90BF9096
:101F7000AF909F908F907F900895CF92DF92EF92D5
:101F8000FF921F93CF93DF93CDB7DEB7A8970FB61D
:101F9000F894DEBF0FBECDBF7C0110E02EE0E2164C
:101FA000F1040CF04EC0612F82E00E946709C70166
:101FB00023E0880F991F2A95E1F7FC01E858FC4FB0
:101FC0006F0160817181828193811CA21BA21EA27C
:101FD0001DA218A61FA22AE0AE014F5F5F4F0E940C
:101FE000CA1BBE016F5F7F4FCE0183960E94200BFC
:101FF000F60180819181A281B381181619061A0613
:102000001B06DCF51A8219821C821B821E821D822D
:10201000BE016D5D7F4FCE0101960E942A0BBE016D
:102020006F5F7F4F88E295E00E949700FFEFEF1A05
:10203000FF0ACE0101960E94560BCE0183960E94A4
:10204000560B1F5F133009F0A9CF63E080E00E94B8
:1020500067096DE771E088E295E00E943F0AA89663
:102060000FB6F894DEBF0FBECDBFDF91CF911F91A9
:10207000FF90EF90DF90CF90089568E371E0CE017C
:1020800001960E94410BCBCF1F920F920FB60F9279
:1020900011242F933F934F935F936F937F938F936D
:1020A0009F93AF93BF93EF93FF938FE494E00E94CD
:1020B0002301FF91EF91BF91AF919F918F917F91FC
:1020C0006F915F914F913F912F910F900FBE0F90A5
:1020D0001F9018951F920F920FB60F9211242F93F5
:1020E0008F939F93EF93FF93E0915F04F0916004CF
:1020F0008081E0916504F091660482FD1BC09081AF
:10210000809168048F5F8F7320916904821741F07A
:10211000E0916804F0E0E15BFB4F958F80936804E9
:10212000FF91EF919F918F912F910F900FBE0F9084
:102130001F9018958081F4CF1F920F920FB60F92C7
:1021400011242F933F938F939F93AF93BF938091CD
:10215000610390916203A0916303B0916403309195
:10216000600323E0230F2D3758F50196A11DB11D03
:10217000209360038093610390936203A0936303B1
:10218000B09364038091650390916603A091670307
:10219000B09168030196A11DB11D809365039093D2
:1021A0006603A0936703B0936803BF91AF919F91BB
:1021B0008F913F912F910F900FBE0F901F90189508
:1021C00026E8230F0296A11DB11DD2CF1F920F92B8
:1021D0000FB60F9211242F933F934F935F936F93FA
:1021E0007F938F939F93AF93BF93EF93FF938091D0
:1021F000B900887F803609F44AC0F0F5883209F4C6
:10220000A7C018F5803109F49BC0B8F4882309F4FD
:10221000F9C0883009F494C0FF91EF91BF91AF915C
:102220009F918F917F916F915F914F913F912F91EE
:102230000F900FBE0F901F901895883109F488C039
:10224000803251F78093230414C0803409F49DC078
:1022500040F48033B9F38833F9F68093230485EC96
:10226000B0C0803509F485C0883509F496C088343B
:1022700099F60E945E0BD0CF883909F48CC038F5EE
:10228000883729F050F4883611F0803729F683E03A
:102290008093250410925F0357C0883809F47BC0EF
:1022A000803919F0803809F0B7CF80915F03803210
:1022B00008F071C0E0915F0381E08E0F80935F03AF
:1022C0008091BB00F0E0E15CFC4F80833DC0803B2F
:1022D00039F0E0F4803A09F479C0883A09F09CCFEB
:1022E00084E08093250410923E0310923D03E09118
:1022F0006B03F0916C03099580913D0381110FC030
:1023000081E080933D0310921D0309C0803C09F4D5
:10231000A6CF883C09F4A3CF883B09F07DCFE0919C
:102320003E0381E08E0F80933E03F0E0E35EFC4FBE
:1023300080818093BB0090913E0380913D0329C032
:10234000809100048093BB0085EC8093BC0064CF37
:102350009091220480912104981758F5E09122046D
:1023600081E08E0F80932204F0E0EF5FFB4F8081CD
:10237000E9CFE091220481E08E0F809322048091C6
:10238000BB00F0E0EF5FFB4F8083909122048091CF
:1023900021049817C8F285E8D8CFE091220481E0A3
:1023A0008E0F809322048091BB00F0E0EF5FFB4F23
:1023B00080838091240481115CCF81E08093FF03AE
:1023C00084EA8093BC001092250426CF85EC80938C
:1023D000BC001092250480915F03803230F4E091BC
:1023E0005F03F0E0E15CFC4F108260915F0370E0FE
:1023F000E0916903F0916A038FE393E009951092ED
:102400005F030ACF1092230434CF1F920F920FB6AE
:102410000F921124CF92DF92EF92FF920F931F93AE
:102420002F933F934F935F936F937F938F939F93DC
:10243000AF93BF93EF93FF93CF93DF93CDB7DEB707
:102440002697DEBFCDBF80917503811143C178947B
:102450000E94AF026B017C0180912504811164C050
:1024600081E080932504809324049FEF90932304BC
:1024700010922204109221048093000480910004A1
:102480008064809300048091FF03813009F081C053
:102490001092FF030E94AF026B017C018091000447
:1024A0008093BB008091270490912804A091290477
:1024B000B0912A04892B8A2B8B2BA1F00E94AF02AA
:1024C00000912704109128042091290430912A04B6
:1024D0006C197D098E099F09061717072807390708
:1024E00008F443C08091BC0083FDD8CF85EC809375
:1024F000BC000E94AF026B017C01809125048130F9
:1025000009F449C08091220411E0811102C01091A8
:102510002204A1E0B4E0ECEFF2E080E0811751F199
:102520009D9191938F5FFACF809127049091280419
:10253000A0912904B0912A04892B8A2B8B2B09F4B2
:102540008BCF0E94AF0200912704109128042091A4
:10255000290430912A046C197D098E099F090617F8
:1025600017072807390708F077CF809126040E94C3
:102570004B0310E010926E0310936D0380916E0375
:10258000181759F18CEE94E00E946C048093980225
:10259000F5CF85EEACCF8091270490912804A091CF
:1025A0002904B0912A04892B8A2B8B2B09F4A5CFFF
:1025B0000E94AF0200912704109128042091290461
:1025C00030912A046C197D098E099F090617170797
:1025D0002807390708F091CFC8CF1091980268E317
:1025E00071E0CE0101960E94410B112309F44BC00A
:1025F00010FD06C063EF71E0CE0101960E94E30A70
:1026000011FD06C06FEF71E0CE0101960E94E30A52
:1026100012FD06C060E172E0CE0101960E94E30A5D
:1026200013FD06C06CE172E0CE0101960E94E30A40
:1026300014FD06C068E272E0CE0101960E94E30A32
:1026400015FD06C061E372E0CE0101960E94E30A27
:102650006DE372E016FF04C017FD06C06EE472E081
:10266000CE0101960E94E30A8AE00E94DB01892BD9
:1026700051F48091EA03811106C06EE572E0CE014B
:1026800001960E94E30A8D819E81892B09F441C045
:10269000E981FA8180818823E1F18BE692E00E9452
:1026A0002C0A83E892E00E942C0ABE016F5F7F4FE4
:1026B0008FE494E00E94970066E371E08FE494E079
:1026C0000E947F0961E082E00E940402CE0101962F
:1026D0000E94560B26960FB6F894DEBF0FBECDBFF4
:1026E000DF91CF91FF91EF91BF91AF919F918F912A
:1026F0007F916F915F914F913F912F911F910F911A
:10270000FF90EF90DF90CF900F900FBE0F901F9033
:10271000189560E0D8CFEFE4F4E01382128288EEDF
:1027200093E0A0E0B0E084839583A683B7832AE09A
:1027300031E03183208325EC30E03587248724EC99
:1027400030E03787268720EC30E0318B208B21EC7E
:1027500030E0338B228B22EC30E0358B248B26EC5F
:1027600030E0378B268B118E128E138E148EECEE8A
:10277000F4E01382128284839583A683B7838CE16D
:1027800091E091838083E0E4F5E082E1818383E15D
:102790008083E8E2F5E0138212828EE291E0918379
:1027A000808388E084838FEF858389E0868384E05B
:1027B000878385E0808786E0818787E0828713862C
:1027C000148615861686178661E080E10E94C70888
:1027D00068E371E082E295E00E94410B62E971E0FA
:1027E00088EF94E00E94410B66E971E08EEF94E07F
:1027F0000E94410B6AE971E084E095E00E94410B80
:102800006EE971E08AE095E00E94410B62EA71E0B6
:1028100080E195E00E94410B66EA71E086E195E077
:102820000E94410B6AEA71E08CE195E00C94410B47
:10283000CF93DF93CDB7DEB766970FB6F894DEBFC0
:102840000FBECDBF789484B5826084BD84B58160AD
:1028500084BD85B5826085BD85B5816085BD80916B
:102860006E00816080936E001092810080918100E3
:1028700082608093810080918100816080938100DB
:10288000809180008160809380008091B10084609D
:102890008093B1008091B00081608093B0008091FE
:1028A0007A00846080937A0080917A0082608093BD
:1028B0007A0080917A00816080937A0080917A001A
:1028C000806880937A001092C1000E949A0C109246
:1028D0006E0310926D0310922C0410924E040E940D
:1028E0002D038DE890E090936C0380936B038EE84A
:1028F00090E090936A0380936903E0915F04F09104
:10290000600482E08083E0915B04F0915C041082BB
:10291000E0915D04F0915E048FEC80831092670477
:10292000E0916304F091640486E08083E0916104A7
:10293000F0916204808180618083E0916104F09174
:102940006204808188608083E0916104F091620478
:10295000808180688083E0916104F09162048081CD
:102960008F7D808384E690E0A0E0B0E08093530404
:1029700090935404A0935504B093560464E084E10A
:102980000E94C70880914105823109F0BEC1809143
:102990004005833109F0B9C181E08093490561E0C8
:1029A00082E10E94040261E083E10E9404028091BE
:1029B000B9008E7F8093B9008091B9008D7F80939C
:1029C000B9008CE08093B80085E08093BC0062E0A1
:1029D00082E00E94F10569E581E00E94F10565E46D
:1029E00080E00E94F10562E286E00E94F10561E06C
:1029F00085E00E94F10560E384E00E94F1051092F9
:102A0000FE0362E08AE00E94320262E08DE00E94F2
:102A1000320262E08CE00E94320261E082E00E94B9
:102A2000320261E083E00E94320261E08BE00E94AA
:102A3000320280917503882349F08091ED03826012
:102A40008093ED0310927403109273038CE00E9444
:102A5000DB01892B09F061C110927203109271039E
:102A60008DE00E94DB01892B31F082E090E09093B1
:102A7000700380936F03109285001092840088E0A9
:102A80009DE39093890080938800109280008DE0F0
:102A90008093810082E080936F0078948091FE03A0
:102AA000E82FF0E0EE0FFF1FE051FC4F9081909374
:102AB000EF0391819093EE030E94E1098091EF036F
:102AC0000E94E1098091EE030E94E10981E0809378
:102AD0002B0487E280934D0410922C0410924E0434
:102AE0006091ED038CEE94E00E94B30481E00E94BB
:102AF0006C0360E080E00E9467096EEA71E088E2A2
:102B000095E00E943F0A62E080E00E94670965ED5F
:102B100071E088E295E00E943F0A63E080E00E9455
:102B200067096091EC0388E295E00E94DA0901E010
:102B300057E2F52E0E9460070E943F050E941A0589
:102B40000E94A2071091ED038091EB03181791F0FA
:102B500000932B04F0924D0410922C0410924E041A
:102B6000612F8CEE94E00E94B30481E00E946C031C
:102B70001093EB038091EA03882309F4D5C0186011
:102B80001093ED030E94770D8FE00E949D0224EFC9
:102B900031E0DC010E94F71C20E034E040E050E02E
:102BA0000E94D81C122F2093E90361E080E00E946C
:102BB0006709612F88E295E00E94DA098091E903B4
:102BC0008A3050F461E081E00E94670966E671E0B6
:102BD00088E295E00E943F0A0E94E504182F64E60F
:102BE00070E080E090E00E94D402112309F4A2CFAB
:102BF0000E940B050E94BF0860E080E00E94670908
:102C00006EE388E295E00E94900090E080E00E94F0
:102C1000BD0F812CD12CC12C10E000E00E943F059B
:102C20000E941A050E94A2070E9460079091EA0381
:102C30008091ED03992309F479C088608093ED03B6
:102C40000F87602F80E00E9467096EE388E295E0BD
:102C50000E949000F090ED038091EB03F816A1F034
:102C600081E080932B0487E280934D0410922C0422
:102C700010924E046F2D8CEE94E00E94B30481E01C
:102C80000E946C03F092EB030E94770D0E94E50412
:102C9000F82E682F8FE494E00E949000FF2049F006
:102CA0006F8580E00E94670960E288E295E00E94FB
:102CB000900064E670E080E090E00E94D4022CE690
:102CC000F21609F4D4C02F159CF133E6F31609F47B
:102CD000CAC444E6F412A2CF8091E8038695869593
:102CE0008695482D5DEF540390011124820F932F98
:102CF000911D0197081719070CF090CF02301105AC
:102D00000CF0C4C00F5F1F4FC1C01092490561E0B5
:102D1000809140050E9432025ACE82E090E090936A
:102D20007203809371039CCE177F2ACF877F86CF53
:102D300052E7F51609F483C085E7F81609F4A1C037
:102D40009FE6F9126BCF0E94BF0864E670E080E056
:102D500090E00E94D402C8018C0D9D1DFC0143E04F
:102D6000EE0FFF1F4A95E1F7E858FC4F24813581AB
:102D7000398B288B408051806280738036813E8BF6
:102D800090937703809376030E94BF0860E082E00F
:102D90000E946709B301A20188E295E00E94F4094C
:102DA00061E082E00E9467096889798988E295E09C
:102DB0000E94260A62E080E00E9467096CEB71E0E5
:102DC00088E295E00E943F0A1B861A86F12CE12CCE
:102DD00042E050E0598748870E94770D0E94E50441
:102DE000B82E882321F062E088850E94670964E696
:102DF00070E080E090E00E94D40254E6B51609F439
:102E00006BC05B150CF44CC083E6B81609F429C4FA
:102E1000BB24B3940E943F050E941A050E94A2079A
:102E2000B110DACF62E370E080E090E00E94D4025B
:102E30000E94BF08C6010E94BD0F6F8528C0809107
:102E4000E80368E10E94AA1C90E003968C159D059A
:102E50005CF00E94BF0823E0C20ED11C8394C6011F
:102E60000E94BD0F10E000E00E940B05D7CE1C149D
:102E70001D04D4F70E94BF0833E0C31AD1088A9416
:102E8000EECF0115110511F001501109602F80E0FE
:102E90000E9467096EE388E295E00E949000E4CF0B
:102EA0009FE6B91641F125E7B212B2CF62E08885FC
:102EB0000E94670939E0E316F10459F04FEFE41A74
:102EC000F40AB70188E295E00E94260A0E940B05E9
:102ED0009FCFF12CE12CF5CF62E088850E94670935
:102EE000E114F10421F051E0E51AF108EACF39E0EC
:102EF000E32EF12CE6CF2AE04A855B85249FC001B2
:102F0000259F900D11249C012E0D3F1D3B872A8784
:102F100063E084E00E9467096A857B8588E295E02A
:102F20000E94260A4885598545305105ACF44F5F0B
:102F30005F4F59874887BB24B39462E088850E941D
:102F4000670970E060E088E295E00E94260A0E942E
:102F50000B05F12CE12C5ECF888999892A853B8568
:102F60008217930709F060C063E088850E946709B3
:102F70006EEB71E088E295E00E943F0A64E670E043
:102F800080E090E00E94D4023E89313009F0EBC22B
:102F90000E94BF0860E080E00E9467096EE388E25B
:102FA00095E00E9490000E94410A512C412C4C86D1
:102FB0008091EA0361E0811101C060E082E00E943B
:102FC00004020E943F050E941A050E94A2070E9467
:102FD000770D6C8580E00E9467096EE388E295E0DA
:102FE0000E9490000E94E504F82E882349F06C8529
:102FF00080E00E94670960E288E295E00E9490000C
:1030000064E670E080E090E00E94D40244E6F416AA
:1030100011F14F155CF053E6F512CACF64E670E08B
:1030200080E090E00E94D402B12C87CF8FE6F816A2
:10303000B1F095E7F912BCCF21E0421A5108642D96
:1030400080E00E9467096EE388E295E00E949000AC
:103050000E940B05ACCF3FEF431A530AF0CF42E07A
:10306000441651049CF4C2010E94980B0E940B0567
:103070000E94BF080E94410A6C8580E00E94670997
:103080006EE388E295E00E94900091CF52E04516F1
:10309000510409F0B3C00E94BF080E94BF0860E05D
:1030A00081E00E94670966EC71E088E295E00E9489
:1030B0003F0A61E081E00E9467096FEC71E088E2FD
:1030C00095E00E943F0A62E080E00E9467096EE39B
:1030D00088E295E00E94900062E081E00E9467092A
:1030E0006091EC0388E295E00E94DA09E090EC033D
:1030F000F12C0E94770D0E943F050E941A050E9444
:10310000A2078FE00E949D0224EF31E0DC010E94C3
:10311000F71C20E034E040E050E00E94D81CB22EC2
:103120002093E90360E089E00E9467096B2D88E243
:1031300095E00E94DA090E94E504B82E64E670E08A
:1031400080E090E00E94D40284E6B81641F18B152D
:1031500054F093E6B912CDCF64E670E080E090E0E1
:103160000E94D40283CF2FE6B21661F135E7B31285
:10317000C0CF62E081E00E9467094FEFE41AF40AD1
:103180005FEFE516F506B1F462E082E00E946709A0
:1031900066E671E088E295E00E943F0A0BC062E0BB
:1031A00081E00E94670981E0E81AF1089AE0E916D7
:1031B000F10451F3B70188E295E00E94260A0E94CB
:1031C0000B0597CF63E084E00E946709B70188E2AE
:1031D00095E00E94260A6E2D81E090E00E94960BF9
:1031E000E092EC0362E081E00E946709B70188E2A7
:1031F00095E00E94260A0E940B05AECF0E94BF08F0
:1032000060E080E00E9467096EE388E295E00E943A
:103210009000312C212C712C612C0E94770D0E9482
:103220003F050E941A050E94A2076A8A662D80E067
:103230000E9467096EE388E295E00E9490007101A8
:10324000B12C27E0E216F10424F56B2D82E00E94F8
:1032500067091A8219821C821B821E821D8236E037
:103260003E9DB0013F9D700D112468507B4FCE01F3
:1032700001960E942A0BBE016F5F7F4F88E295E0A6
:103280000E9497004FEFE41AF40ACE0101960E94C3
:10329000560BB39453E0B512D4CF63E086E0E81642
:1032A000F10474F580E00E9467096DE771E088E23F
:1032B00095E00E943F0A0E94E504F82E882349F019
:1032C0006A8980E00E94670960E288E295E00E94D6
:1032D000900064E670E080E090E00E94D4022CE66A
:1032E000F21609F4A8C02F150CF133E6F31609F411
:1032F00035C144E6F41291CF8FEF681A780AA7C05F
:1033000082E00E94670996E09E9DB0019F9D700D2E
:10331000112468507B4F88E295E00E94970063E09B
:1033200088E00E9467096FED71E0C1CF52E7F516A2
:1033300009F473C085E7F81609F486C09FE6F91210
:103340006CCF0E94BF08222D260D3327331FC901E1
:10335000CC96880F482F50E05E874D87CA010E94A7
:10336000980C982E8D859E8501969C8B8B8B0E9448
:10337000980CB82E911004C0811102C028E1B22E21
:1033800060E080E00E94670969EE71E088E295E004
:103390000E943F0A62E080E00E9467096FEE71E0E0
:1033A00088E295E00E943F0AE92CF12C61E088E078
:1033B0000E946709692D88E295E00E94DA0963E0BE
:1033C00088E00E9467096B2D88E295E00E94DA0987
:1033D000AA24A394B12C0E94770D0E943F050E945D
:1033E0001A050E94A2070E94E5048F8364E670E03C
:1033F00080E090E00E94D4029F81943609F456C088
:1034000084F5933641F762E370E080E090E00E943B
:10341000D4020E94BF086A891BC023E0221631042F
:103420003CF40E94BF0833E0230E311C712C612C48
:103430000E940B05F2CE12141304D4F70E94BF08A9
:1034400043E0241A3108F2CF51E0651A7108662D65
:1034500080E00E9467096EE388E295E00E94900098
:10346000E7CF2F812F3609F445C0253709F0B3CFB8
:1034700038E1E316F1041CF44FEFE41AF40A6A2D64
:1034800088E00E946709B70188E295E00E94260A59
:1034900058E1951221C06A2D89E00E94670966E60D
:1034A00071E088E295E00E943F0A16C083E0A8160A
:1034B000B104A9F49E141F041CF491E0E91AF10868
:1034C0006A2D88E00E946709B70188E295E00E94B2
:1034D000260A49E04915F8F60E940B057CCF21E049
:1034E000A216B10469F7E114F10451F331E0E31AD3
:1034F000F108E6CFEF8251E0A516B10449F1692D3C
:103500008D859E850E94960B6E2D8B899C890E94CD
:10351000960B9F821D8A6A2D88E00E946709B70179
:1035200088E295E00E94260A9F819A3050F46A2D25
:1035300089E00E94670968E371E088E295E00E94F3
:103540003F0A0E940B059F802D89211144CF5BCF3C
:1035500081E08D8B83E0A82EB12CDDCF62E370E09B
:1035600080E090E0FDCD0E94BF0860E080E00E9416
:1035700067096EE388E295E00E949000F12CE12C4F
:10358000AE2C0E94770D0E943F050E941A050E94F2
:10359000A20760E082E00E94670969E371E088E2C7
:1035A00095E00E943F0A61E082E00E9467096FE3B4
:1035B00071E088E295E00E943F0A6A2D80E00E9457
:1035C00067096EE388E295E00E9490000E94E5049E
:1035D000B82E882349F06A2D80E00E94670960E2D6
:1035E00088E295E00E94900064E670E080E090E060
:1035F0000E94D40234E6B316E1F03B152CF043E60A
:10360000B41609F40BCDBDCF5FE6B516C9F085E75A
:10361000B812B7CF91E0E91AF1086E2D80E00E9450
:1036200067096EE388E295E00E9490000E940B0516
:10363000A7CF1E141F04D4F32FEFE21AF20AEDCF26
:10364000C7010E94980B0E94BF080E940B056A2DBB
:1036500080E00E9467096EE388E295E00E94900096
:103660008FCFB12CD7CB0E94BF0864E670E080E01A
:1036700090E00E94D4023DCACF93DF93C2E2D5E02E
:103680002697CE010E94560B84E0C83FD807C1F7A9
:1036900082E295E0DF91CF910C94560BFC018827D4
:1036A0009927E89421912032E9F3293010F02E3047
:1036B000C8F32B3241F02D3239F4689404C00E94D3
:1036C000EE1B820F911D219120532A30C0F31EF46E
:1036D000909581959F4F08951F93FC019927882706
:1036E000BC01E89411911032E9F3193010F01E304A
:1036F000C8F31B3251F01D3249F4689406C00E9491
:10370000D91B610F711D811D911D119110531A302C
:10371000B0F33EF490958095709561957F4F8F4FF3
:103720009F4F1F9108954AE455E00E94981B089509
:10373000FA01A191B081009719F41097E1F0CD0141
:10374000DC01CD010D90002011F4C00113C0FB017C
:103750002191222319F02015D9F7F3CFFB012191F4
:10376000201519F41E92119606C02223C1F70D9060
:103770000020A1F7D001FA01A193B0830895BB27DF
:103780004A3031F4992322F4BDE2909581959F4F00
:103790000C94191CBB272A3051F4992342F4BDE242
:1037A00090958095709561957F4F8F4F9F4F0C94AA
:1037B000F71B592F482F372F262F660F771F881F8B
:1037C000991F660F771F881F991F620F731F841F31
:1037D000951F660F771F881F991F08957AE0979F9E
:1037E000902D879F802D910D11240895BB27FA01FC
:1037F000A62F6217710581059105330B30FB66F02A
:10380000AA27660F771F881F991FAA1FA21710F0FB
:10381000A21B63953850A9F7A05DAA3308F0A95DF3
:10382000A19336F7B111B1931082CA010C943B1CDD
:10383000BB27FB015527AA27880F991FAA1FA4178A
:1038400010F0A41B83955051B9F7A05DAA3308F07E
:10385000A95DA193009779F7B111B1931192CB01B2
:103860000C943B1C91110C944B1C803219F0895024
:103870008550C8F70895DC01FC01672F719177230B
:10388000E1F7329704C07C916D9370836291AE171B
:10389000BF07C8F30895992788270895F999FECF9F
:1038A00092BD81BDF89A992780B50895262FF99980
:1038B000FECF1FBA92BD81BD20BD0FB6F894FA9A13
:1038C000F99A0FBE019608952F923F924F925F9200
:1038D0006F927F928F929F92AF92BF92CF92DF9220
:1038E000EF92FF920F931F93CF93DF93CDB7DEB785
:1038F000CA1BDB0B0FB6F894DEBF0FBECDBF099419
:103900002A88398848885F846E847D848C849B846F
:10391000AA84B984C884DF80EE80FD800C811B817D
:10392000AA81B981CE0FD11D0FB6F894DEBF0FBEAC
:10393000CDBFED010895A29FB001B39FC001A39F29
:10394000700D811D1124911DB29F700D811D1124D8
:10395000911D0895991B79E004C0991F961708F0EE
:10396000961B881F7A95C9F780950895A1E21A2EB3
:10397000AA1BBB1BFD010DC0AA1FBB1FEE1FFF1F13
:10398000A217B307E407F50720F0A21BB30BE40B63
:10399000F50B661F771F881F991F1A9469F76095AA
:1039A0007095809590959B01AC01BD01CF01089564
:1039B000052E97FB1EF400940E94EF1C57FD07D0C4
:1039C0000E94B61C07FC03D04EF40C94EF1C5095DB
:1039D0004095309521953F4F4F4F5F4F08959095FB
:1039E0008095709561957F4F8F4F9F4F08950E94EE
:1039F0009B1CB7FF0895821B930B0895EE0FFF1FCA
:103A00000590F491E02D09940F931F93CF93DF93CA
:103A10008230910510F482E090E0E0914E05F09143
:103A20004F0530E020E0B0E0A0E0309799F4211598
:103A3000310509F44AC0281B390B24303105D8F56B
:103A40008A819B816115710589F1FB0193838283D2
:103A5000FE0111C04081518102811381481759072D
:103A6000E0F04817590799F4109761F012960C93FB
:103A7000129713961C933296CF01DF91CF911F912D
:103A80000F91089500934E0510934F05F4CF211523
:103A9000310551F04217530738F0A901DB019A01B3
:103AA000BD01DF01F801C1CFEF01F9CF90934F05C0
:103AB00080934E05CDCFFE01E20FF31F81939193CA
:103AC0002250310939832883D7CF20914C0530917A
:103AD0004D05232B41F420910201309103013093D5
:103AE0004D0520934C0520910001309101012115D5
:103AF000310541F42DB73EB74091040150910501C5
:103B0000241B350BE0914C05F0914D05E217F307AE
:103B1000A0F42E1B3F0B2817390778F0AC014E5F3D
:103B20005F4F2417350748F04E0F5F1F50934D0528
:103B300040934C05819391939FCFF0E0E0E09CCFC0
:103B4000CF93DF930097E9F0FC0132971382128242
:103B5000A0914E05B0914F05ED0130E020E01097A7
:103B6000A1F420813181820F931F20914C05309167
:103B70004D052817390709F061C0F0934D05E09312
:103B80004C05DF91CF910895EA01CE17DF07E8F5E4
:103B90004A815B819E0141155105B1F7E901FB8323
:103BA000EA8349915991C40FD51FEC17FD0761F4C1
:103BB000808191810296840F951FE9019983888302
:103BC000828193819B838A83F0E0E0E012968D915D
:103BD0009C9113970097B9F52D913C911197CD01C8
:103BE0000296820F931F20914C0530914D052817A6
:103BF000390739F6309751F510924F0510924E055E
:103C0000B0934D05A0934C05BCCFD383C2834081B4
:103C10005181840F951FC817D90761F44E5F5F4F1C
:103C200088819981480F591F518340838A819B81E4
:103C3000938382832115310509F0B0CFF0934F05AE
:103C4000E0934E059ECFFD01DC01C0CF13821282AE
:103C5000D7CFB0E0A0E0EFE2FEE10C94661C8C014F
:103C6000009751F4CB010E94041D8C01C801CDB70F
:103C7000DEB7E0E10C94821CFC01E60FF71F9C010B
:103C800022503109E217F30708F49DC0D901CD9104
:103C9000DC911197C617D70798F0C530D10530F3DE
:103CA000CE0104978617970708F3C61BD70B2297F8
:103CB000C193D1936D937C93CF010E94A01DD6CF69
:103CC0005B01AC1ABD0A4C018C0E9D1EA0914E05E5
:103CD000B0914F05512C412CF12CE12C109731F56E
:103CE00080914C0590914D058815990509F05CC0AF
:103CF0004616570608F058C08091000190910101C6
:103D0000009741F48DB79EB7409104015091050191
:103D1000841B950BE817F90708F055C0F0934D0583
:103D2000E0934C05F90171836083A0CF8D919C9144
:103D3000119712966C90129713967C901397A81572
:103D4000B90559F56C0142E0C40ED11CCA14DB045C
:103D500020F1AC014A195B09DA011296159780F03F
:103D60006282738251834083D9016D937C93E11405
:103D7000F10471F0D7011396FC93EE93129776CF6E
:103D800022968C0F9D1FF90191838083F301EFCF61
:103D9000F0934F05E0934E0569CF4816590608F495
:103DA0002C017D01D3019ACFCB010E94041D7C011F
:103DB000009749F0AE01B8010E94E61EC8010E94BA
:103DC000A01D870153CF10E000E050CFFB01DC01C4
:103DD00002C001900D9241505040D8F70895FB0168
:103DE000DC018D91019080190110D9F3990B089590
:103DF000FB01DC0101900D920020E1F7089510E035
:103E0000C2E6D0E004C0FE010E94FE1C2196C3362B
:083E1000D107C9F7F894FFCFB8
:103E1800000050058000000000004501A500D20008
:103E280092010301E100F50000000000B3048604DC
:103E3800E2045C047F046C045D040000000079095E
:103E4800A500E2048F000D0A00656E746572006CAF
:103E5800656176650074656D702073657474696E4C
:103E680067007765656B20646179730050657273CC
:103E78006F6E2000202C2000494E004F55540066DC
:103E8800617654656D703A20002C004D004C454613
:103E9800543A505245562C52494748543A4E455880
:103EA800540073756E006D6F6E00747565007765EC
:103EB80064007468750066726900736174006375E4
:103EC8007272656E742074656D703A003E00656E9E
:103ED80074657265640063757272656E743A006524
:103EE8006E746572206661762074656D703A004C58
:103EF8004546543A505245560066726F6D3A007402
:103F08006F3A002C73616C657320726F6F6D002CB3
:103F180070726F64756374696F6E20726F6F6D0075
:103F28002C6169736C6520726F6F6D002C7265630C
:103F3800657020726F6F6D002C776320726F6F6DE4
:103F4800002C756E696F6E20726F6F6D002C726534
:103F58007374756172616E7420726F6F6D002C726C
:103F68006570616972696E6720726F6F6D006D614F
:103F78006E6167657220726F6F6D0073656E64693C
:103F88006E6720736D7320616E642063616C6C6969
:103F98006E67007761726E696E672066726F6D205A
:083FA800726F6F6D3A200000FA
:00000001FF
