:020000040000FA
:100000000C9461000C94CC020C94A5020C947E001C
:100010000C947E000C947E000C947E000C947E0068
:100020000C947E000C947E000C947E000C947E0058
:100030000C947E000C947E000C947E000C947E0048
:100040000C945B020C947E000C947E000C947E0059
:100050000C947E000C947E000C947E000C947E0028
:100060000C947E000C947E00000000002400270009
:100070002A0000000000250028002B0000000000DE
:1000800023002600290004040404040404040202DA
:100090000202020203030303030301020408102007
:1000A0004080010204081020010204081020000012
:1000B0000008000201000003040700000000000027
:1000C000000011241FBECFEFD8E0DEBFCDBF11E08E
:1000D000A0E0B1E0ECE4F7E002C005900D92A8309A
:1000E000B107D9F721E0A8E0B1E001C01D92A63127
:1000F000B207E1F70E94F3020C94A4030C940000F1
:1001000080910A01811106C083E991E09093060174
:10011000809305010895833081F028F4813099F0AF
:100120008230A9F008958730A9F08830C9F0843072
:10013000B1F4809180008F7D03C0809180008F7723
:1001400080938000089584B58F7784BD089584B529
:100150008F7DFBCF8091B0008F778093B0000895A2
:100160008091B0008F7DF9CFCF93DF93282F30E0BF
:10017000F901E255FF4F8491F901E656FF4FD49102
:10018000F901EA57FF4FC491CC23A1F081110E94DD
:100190008B00EC2FF0E0EE0FFF1FE458FF4FA5910E
:1001A000B491EC91ED2381E090E009F480E0DF91DF
:1001B000CF91089580E090E0FACF1F93CF93DF9323
:1001C000282F30E0F901E255FF4F8491F901E656FE
:1001D000FF4FD491F901EA57FF4FC491CC23A9F006
:1001E000162F81110E948B00EC2FF0E0EE0FFF1F05
:1001F000EE58FF4FA591B4918FB7F894EC9111117F
:1002000008C0D095DE23DC938FBFDF91CF911F9183
:100210000895DE2BF8CFCF93DF9390E0FC01E656F4
:10022000FF4F24918A579F4FFC0184918823D1F07E
:1002300090E0880F991FFC01E859FF4FA591B491F8
:10024000FC01EE58FF4FC591D491623071F49FB715
:10025000F8943C91822F809583238C93E8812E2BF8
:1002600028839FBFDF91CF9108958FB7F894EC91C9
:100270002E2B2C938FBFF6CF3FB7F89480911201AD
:1002800090911301A0911401B091150126B5A89B7E
:1002900005C02F3F19F00196A11DB11D3FBFBA2F18
:1002A000A92F982F8827BC01CD01620F711D811DD8
:1002B000911D42E0660F771F881F991F4A95D1F75D
:1002C00008950895CF93C62F61E00E94DD0060E09D
:1002D0008C2FCF910C94DD00809108019091090141
:1002E0004E97A4F010920901109208018CE192E05F
:1002F0009093060180930501809108019091090176
:1003000001969093090180930801089565E070E0DB
:1003100084E090E00E94620161E070E090E080E0A3
:100320000E946201E9CF81E080930A0110920001EE
:1003300080910801909109010497A4F0109209019D
:10034000109208018CE691E09093060180930501DC
:100350008091080190910901019690930901809381
:100360000801089565E070E084E090E00E94620179
:10037000EFCF80910B0190910C014E97A4F0109259
:100380000C0110920B018DE092E090930601809396
:10039000050180910B0190910C01019690930C0145
:1003A00080930B01089570E060E081E090E00E948E
:1003B000620164E070E085E090E00E946201E9CFB4
:1003C00010920A0180910B0190910C010497A4F006
:1003D00010920C0110920B0189EB91E090930601B1
:1003E0008093050180910B0190910C0101969093EF
:1003F0000C0180930B01089570E060E081E090E0D3
:100400000E946201EFCFCF93C62F60E00E94DD0013
:1004100060E08C2FCF910C94DD0081E0809300018F
:1004200061E070E090E080E00E94030265E070E02F
:1004300084E090E00C9403028091080190910901FE
:10044000883791059CF083E00E94B400019771F415
:10045000109209011092080110920C0110920B01E8
:1004600080EE91E0909306018093050161E070E0D9
:1004700090E080E00E94030265E070E084E090E09C
:100480000E940302809108019091090101969093C6
:10049000090180930801089580910A0181110AC021
:1004A00080910001811106C08CE691E090930601D5
:1004B0008093050108951F920F920FB60F92112499
:1004C0002F933F938F939F93AF93BF9380910E0190
:1004D00090910F01A0911001B091110130910D0187
:1004E00023E0230F2D3758F50196A11DB11D209350
:1004F0000D0180930E0190930F01A0931001B09312
:1005000011018091120190911301A0911401B091F9
:1005100015010196A11DB11D809312019093130145
:10052000A0931401B0931501BF91AF919F918F914A
:100530003F912F910F900FBE0F901F90189526E8B6
:10054000230F0296A11DB11DD2CF1F920F920FB69D
:100550000F9211242F933F934F935F936F937F9349
:100560008F939F93AF93BF93EF93FF93E09103011A
:10057000F09104010995FF91EF91BF91AF919F9187
:100580008F917F916F915F914F913F912F910F903C
:100590000FBE0F901F9018951F920F920FB60F92DB
:1005A00011242F933F934F935F936F937F938F9378
:1005B0009F93AF93BF93EF93FF93E0910101F0916D
:1005C00002010995FF91EF91BF91AF919F918F919A
:1005D0007F916F915F914F913F912F910F900FBE3F
:1005E0000F901F901895789484B5826084BD84B56F
:1005F000816084BD85B5826085BD85B5816085BD1E
:1006000080916E00816080936E00109281008091D5
:10061000810082608093810080918100816080935D
:100620008100809180008160809380008091B10082
:1006300084608093B1008091B00081608093B000AD
:1006400080917A00846080937A0080917A00826041
:1006500080937A0080917A00816080937A00809103
:100660007A00806880937A001092C10062E082E094
:100670000E940B0162E083E00E940B0161E084E0D4
:100680000E940B0161E085E00E940B0161E080E0C7
:100690000E940B0161E081E00E940B018CE492E07A
:1006A000909304018093030180916900837F8860A7
:1006B00080936900E99A80E890E09093020180932A
:1006C0000101809169008C7F826080936900E89AC3
:1006D00082E00E94B400892B31F08DE092E090938B
:1006E000060180930501C0E0D0E0E0910501F091A2
:1006F000060109950E943C014B015C0184EFC82E64
:10070000DD24D394E12CF12C0E943C016819790975
:100710008A099B09683E734081059105A8F321E091
:10072000C21AD108E108F10888EE880E83E0981E0D
:10073000A11CB11CC114D104E104F10429F72097D4
:10074000A1F20E940000D1CFF894FFCF01610161B6
:040750000193010010
:107E0000112484B714BE81FFF0D085E080938100F7
:107E100082E08093C00088E18093C10086E0809377
:107E2000C20080E18093C4008EE0C9D0259A86E02C
:107E300020E33CEF91E0309385002093840096BBD3
:107E4000B09BFECF1D9AA8958150A9F7CC24DD24C4
:107E500088248394B5E0AB2EA1E19A2EF3E0BF2EE7
:107E6000A2D0813461F49FD0082FAFD0023811F036
:107E7000013811F484E001C083E08DD089C08234E0
:107E800011F484E103C0853419F485E0A6D080C0E4
:107E9000853579F488D0E82EFF2485D0082F10E0AE
:107EA000102F00270E291F29000F111F8ED06801E7
:107EB0006FC0863521F484E090D080E0DECF843638
:107EC00009F040C070D06FD0082F6DD080E0C81688
:107ED00080E7D80618F4F601B7BEE895C0E0D1E017
:107EE00062D089930C17E1F7F0E0CF16F0E7DF06D8
:107EF00018F0F601B7BEE89568D007B600FCFDCFD4
:107F0000A601A0E0B1E02C9130E011968C91119780
:107F100090E0982F8827822B932B1296FA010C0160
:107F200087BEE89511244E5F5F4FF1E0A038BF0790
:107F300051F7F601A7BEE89507B600FCFDCF97BE46
:107F4000E89526C08437B1F42ED02DD0F82E2BD052
:107F50003CD0F601EF2C8F010F5F1F4F84911BD097
:107F6000EA94F801C1F70894C11CD11CFA94CF0C13
:107F7000D11C0EC0853739F428D08EE10CD085E9AC
:107F80000AD08FE07ACF813511F488E018D01DD067
:107F900080E101D065CF982F8091C00085FFFCCF94
:107FA0009093C60008958091C00087FFFCCF809118
:107FB000C00084FD01C0A8958091C6000895E0E648
:107FC000F0E098E1908380830895EDDF803219F02E
:107FD00088E0F5DFFFCF84E1DECF1F93182FE3DFCA
:107FE0001150E9F7F2DF1F91089580E0E8DFEE27F6
:047FF000FF270994CA
:027FFE00040479
:00000001FF
