:100000000C9458000C9480000C9480000C94800098
:100010000C9480000C9480000C9480000C94800060
:100020000C9480000C9480000C9480000C94800050
:100030000C9480000C9480000C9480000C94800040
:100040000C941C020C9480000C9480000C94800092
:100050000C9480000C9480000C9480000C94800020
:100060000C9466020C94800000000000250028001B
:100070002B00040404040404040402020202020229
:10008000030303030303010204081020408001025C
:1000900004081020010204081020000000080002DB
:1000A0000100000304070000000000000000AD058F
:1000B00011241FBECFEFD8E0DEBFCDBF11E0A0E01E
:1000C000B1E0ECE8FBE002C005900D92A231B1076F
:1000D000D9F721E0A2E1B1E001C01D92A23EB20732
:1000E000E1F710E0C8E5D0E004C02197FE010E94CE
:1000F000BE05C735D107C9F70E9485030C94C40516
:100100000C9400008091840190918301891B990BCC
:1001100008950895089590E0FC01E656FF4F24915C
:10012000FC01EA57FF4F3491FC01EE58FF4FE49178
:10013000EE23C9F0222339F0233001F1A8F4213055
:1001400019F1223029F1F0E0EE0FFF1FE859FF4FBF
:10015000A591B4918FB7F894EC91611126C03095B8
:100160003E233C938FBF08952730A9F02830C9F073
:10017000243049F7809180008F7D03C080918000FA
:100180008F7780938000DFCF84B58F7784BDDBCFFE
:1001900084B58F7DFBCF8091B0008F778093B000C6
:1001A000D2CF8091B0008F7DF9CF3E2BDACF3FB711
:1001B000F89480915B0190915C01A0915D01B091F8
:1001C0005E0126B5A89B05C02F3F19F00196A11D21
:1001D000B11D3FBFBA2FA92F982F8827BC01CD0191
:1001E000620F711D811D911D42E0660F771F881FF0
:1001F000991F4A95D1F7089520913301260F33278F
:10020000331F21323105ECF42091AB01FC0190E069
:1002100080E0243069F082E00895A09133012191BB
:10022000AC014D5E5E4FA40FB52FB11D2C9301960E
:10023000861798F380913301680F6093330180E053
:10024000089581E008951092AB0181E08093AA01A6
:100250001092850161E082E10E948B0061E083E100
:100260000E948B00E9EBF0E080818E7F80838081AB
:100270008D7F808388E48093B80085E48093BC0000
:100280000895CF93DF9391E0909312018823B9F002
:10029000C091B800D091BA008091BC008A7B809355
:1002A000BC0060E082E10E948B0060E083E10E947C
:1002B0008B000E942301D093BA00C093B800DF9155
:1002C000CF9108950895E091830180918401E8170A
:1002D00030F4F0E0ED59FE4F808190E008958FEF0B
:1002E0009FEF089590918301809184012FEF3FEF5C
:1002F000981748F4E92FF0E0ED59FE4F208130E0E7
:100300009F5F90938301C9010895CF92DF92EF928E
:10031000FF920F931F93CF93DF937C01CB018A0150
:100320002091B101222389F0EB016B01C40ED51E8F
:10033000CC15DD0569F06991D701ED91FC91019033
:10034000F081E02DC7010995F3CF642F0E94FC00D6
:10035000C801DF91CF911F910F91FF90EF90DF9037
:10036000CF900895CF93DF931F92CDB7DEB7698307
:100370002091B1012223F9F02091D401203258F0CC
:1003800021E030E0FC013383228390E080E00F9095
:10039000DF91CF9108958091B201E82FF0E0ED5404
:1003A000FE4F998190838F5F8093B2018093D40137
:1003B00081E090E0ECCF61E0CE0101960E94FC006C
:1003C000F7CF90E080E0089585ED8093BC008091A8
:1003D000AD019091AE01A091AF01B091B00107962F
:1003E000A11DB11D23E0B695A795979587952A95F0
:1003F000D1F72091BC0024FD03C01092AB010895F9
:100400004091AD015091AE016091AF017091B0018A
:10041000452B462B472B69F30097A105B10541F009
:1004200025E32A95F1F700000197A109B109E1CF71
:100430008091AC010C9441011F920F920FB60F9264
:1004400011242F933F938F939F93AF93BF938091EA
:10045000570190915801A0915901B0915A013091E2
:10046000560123E0230F2D3758F50196A11DB11D2C
:10047000209356018093570190935801A0935901FE
:10048000B0935A0180915B0190915C01A0915D0154
:10049000B0915E010196A11DB11D80935B01909307
:1004A0005C01A0935D01B0935E01BF91AF919F91FC
:1004B0008F913F912F910F900FBE0F901F90189525
:1004C00026E8230F0296A11DB11DD2CF1F920F92D5
:1004D0000FB60F9211242F933F934F935F936F9317
:1004E0007F938F939F93AF93BF93EF93FF938091ED
:1004F000B900887F803609F44AC0F0F5883209F4E3
:10050000A7C018F5803109F49BC0B8F4882309F41A
:10051000F9C0883009F494C0FF91EF91BF91AF9179
:100520009F918F917F916F915F914F913F912F910B
:100530000F900FBE0F901F901895883109F488C056
:10054000803251F78093A90114C0803409F49DC012
:1005500040F48033B9F38833F9F68093A90185EC30
:10056000B0C0803509F485C0883509F496C0883458
:1005700099F60E94E401D0CF883909F48CC038F58F
:10058000883729F050F4883611F0803729F683E057
:100590008093AB011092550157C0883809F47BC095
:1005A000803919F0803809F0B7CF80915501803239
:1005B00008F071C0E091550181E08E0F80935501E4
:1005C0008091BB00F0E0EB5CFE4F80833DC0803B40
:1005D00039F0E0F4803A09F479C0883A09F09CCF08
:1005E00084E08093AB011092340110923301E091CA
:1005F0006101F091620109958091330181110FC071
:1006000081E0809333011092130109C0803C09F40A
:10061000A6CF883C09F4A3CF883B09F07DCFE091B9
:10062000340181E08E0F80933401F0E0ED5EFE4FE7
:1006300080818093BB00909134018091330129C067
:10064000809186018093BB0085EC8093BC0064CFD1
:100650009091A8018091A701981758F5E091A80101
:1006600081E08E0F8093A801F0E0E957FE4F808172
:10067000E9CFE091A80181E08E0F8093A8018091DD
:10068000BB00F0E0E957FE4F80839091A801809174
:10069000A7019817C8F285E8D8CFE091A80181E0BA
:1006A0008E0F8093A8018091BB00F0E0E957FE4FC8
:1006B00080838091AA0181115CCF81E080938501C4
:1006C00084EA8093BC001092AB0126CF85EC809326
:1006D000BC001092AB0180915501803230F4E09162
:1006E0005501F0E0EB5CFE4F10826091550170E027
:1006F000E0915F01F091600185E391E0099510922E
:1007000055010ACF1092A90134CF789484B5826044
:1007100084BD84B5816084BD85B5826085BD85B5A5
:10072000816085BD80916E00816080936E00109223
:10073000810080918100826080938100809181009E
:10074000816080938100809180008160809380002F
:100750008091B10084608093B1008091B00081608D
:100760008093B00080917A00846080937A008091B9
:100770007A00826080937A0080917A008160809311
:100780007A0080917A00806880937A001092C1008C
:1007900010928301109284011092B2011092D40140
:1007A0000E94230189E890E09093620180936101A7
:1007B0008AE890E09093600180935F0195EE792E36
:1007C00025EC622E36E2432E00E010E0D1E0552405
:1007D0005A9442E0342E0E94D7006B017C01809134
:1007E000AB01811161C0D093AB011092AA0150926C
:1007F000A9011092A8011092A701D09386018091BF
:1008000086018C648093860180918501813009F096
:1008100080C0109285010E94D7006B017C018091FD
:1008200086018093BB008091AD019091AE01A091B3
:10083000AF01B091B001892B8A2B8B2BA1F00E94C4
:10084000D7008090AD019090AE01A090AF01B09024
:10085000B0016C197D098E099F0986169706A806B6
:10086000B90608F442C08091BC0083FDD8CF6092E5
:10087000BC000E94D7006B017C018091AB018130EC
:1008800009F44AC08091A801C1E0811102C0C09161
:10089000A801A7E8B1E0E3E6F1E080E08C1751F1B0
:1008A0009D9191938F5FFACF8091AD019091AE01B0
:1008B000A091AF01B091B001892B8A2B8B2B09F449
:1008C0008ECF0E94D7008090AD019090AE01A09095
:1008D000AF01B090B0016C197D098E099F09861691
:1008E0009706A806B90608F07ACF8091AC010E945D
:1008F0004101C0E010928301C09384018091830183
:10090000C81761F186ED91E00E9472018093D501D4
:10091000F5CF7092BC00ADCF8091AD019091AE014A
:10092000A091AF01B091B001892B8A2B8B2B09F4D8
:10093000A4CF0E94D7008090AD019090AE01A0900E
:10094000AF01B090B0016C197D098E099F09861620
:100950009706A806B90608F090CFC7CF6091D501D9
:100960006295607F6093D501D093B1014092D3012D
:100970001092B2011092D4016F6086ED91E00E9456
:10098000B201C091D401C13208F08CC00E94D700DE
:100990006B017C018091AB0181115FC03092AB0192
:1009A0001092AA015092A9011092A801C093A70128
:1009B000A3EBB1E0E7E8F1E0C813A6C0109286010E
:1009C000809186018C6480938601809185018130BD
:1009D00009F09EC0109285010E94D7006B017C0136
:1009E000809186018093BB008091AD019091AE0112
:1009F000A091AF01B091B001892B8A2B8B2B99F07C
:100A00000E94D7008090AD019090AE01A090AF0100
:100A1000B090B0016C197D098E099F098616970662
:100A2000A806B906D8F18091BC0083FDD9CF6092A9
:100A3000BC000E94D7006B017C018091AB01823029
:100A400009F469C08091A9018F3F61F18091A901EA
:100A5000803241F18091A90125C08091AD01909132
:100A6000AE01A091AF01B091B001892B8A2B8B2BE5
:100A700009F490CF0E94D7008090AD019090AE0114
:100A8000A090AF01B090B0016C197D098E099F094B
:100A900086169706A806B90608F07CCF8091AC01AF
:100AA0000E9441011092B2011092D4011092B10142
:100AB0000E94D7004B015C0184EFC82EDD24D39443
:100AC000E12CF12C0E94D700681979098A099B0949
:100AD000683E734081059105A8F321E0C21AD10850
:100AE000E108F10888EE880E83E0981EA11CB11C75
:100AF000C114D104E104F10429F70115110509F429
:100B00006ACE0E94000067CE9D9191938F5F54CF73
:100B10007092BC008ECF8091AD019091AE01A091FA
:100B2000AF01B091B001892B8A2B8B2B09F485CFB3
:100B30000E94D7008090AD019090AE01A090AF01CF
:100B4000B090B0016C197D098E099F098616970631
:100B5000A806B90608F071CFA1CFE6EDF1E0138247
:100B6000128288EE93E0A0E0B0E084839583A683B0
:100B7000B78384E091E0918380830895EE0FFF1F97
:0C0B80000590F491E02D0994F894FFCF4B
:100B8C0000000000B2018501E101620182007201E6
:020B9C006301F3
:00000001FF
