:020000040000FA
:100000000C9462000C948A000C948A000C948A0070
:100010000C948A000C948A000C948A000C948A0038
:100020000C948A000C948A000C948A000C948A0028
:100030000C948A000C948A000C948A000C948A0018
:100040000C94A2030C948A000C948A000C948A00ED
:100050000C948A000C948A000C948A000C948A00F8
:100060000C948A000C948A000000000024002700F1
:100070002A0000000000250028002B0000000000DE
:1000800023002600290004040404040404040202DA
:100090000202020203030303030301020408102007
:1000A0004080010204081020010204081020000012
:1000B0000008000201000003040700000000000027
:1000C00000000C0611241FBECFEFD8E0DEBFCDBF6D
:1000D00011E0A0E0B1E0E4EBFCE002C005900D927D
:1000E000A031B107D9F721E0A0E1B1E001C01D9234
:1000F000AB33B207E1F710E0C2E6D0E004C02197CD
:10010000FE010E945206C136D107C9F70E94EC03D6
:100110000C9458060C940000AF92BF92CF92DF92DD
:10012000EF92FF920F931F93CF93DF936C017B01AC
:100130008B01040F151FEB015E01AE18BF08C0173D
:10014000D10759F06991D601ED91FC910190F081B0
:10015000E02DC6010995892B79F7C501DF91CF9173
:100160001F910F91FF90EF90DF90CF90BF90AF90D5
:100170000895833081F028F4813099F08230A9F01D
:1001800008958730A9F08830C9F08430B1F48091A7
:1001900080008F7D03C0809180008F7780938000E6
:1001A000089584B58F7784BD089584B58F7DFBCF86
:1001B0008091B0008F778093B00008958091B00057
:1001C0008F7DF9CFCF93DF93282F30E0F901E255EF
:1001D000FF4F8491F901E656FF4FD491F901EA5798
:1001E000FF4FC491CC23A1F081110E94B900EC2FE4
:1001F000F0E0EE0FFF1FE458FF4FA591B491EC9192
:10020000ED2381E090E009F480E0DF91CF91089543
:1002100080E090E0FACF1F93CF93DF93282F30E058
:10022000F901E255FF4F8491F901E656FF4FD49151
:10023000F901EA57FF4FC491CC23A9F0162F811181
:100240000E94B900EC2FF0E0EE0FFF1FEE58FF4FB9
:10025000A591B4918FB7F894EC91111108C0D09585
:10026000DE23DC938FBFDF91CF911F910895DE2BAA
:10027000F8CFCF93DF9390E0FC01E656FF4F249137
:100280008A579F4FFC0184918823D1F090E0880F1A
:10029000991FFC01E859FF4FA591B491FC01EE585C
:1002A000FF4FC591D49161110EC09FB7F8948C9106
:1002B000E22FE0958E238C932881E223E8839FBF71
:1002C000DF91CF9108958FB7F894EC91E22BEC93E6
:1002D0008FBFF6CF60E080911A010E94390161E082
:1002E000809119010E940B0180911A010E94E20085
:1002F0000197D1F360E0809119010C940B013FB795
:10030000F8948091150190911601A0911701B09178
:10031000180126B5A89B05C02F3F19F00196A11D15
:10032000B11D3FBFBA2FA92F982F8827BC01CD013F
:10033000620F711D811D911D42E0660F771F881F9E
:10034000991F4A95D1F70895089590E080E00895A7
:100350008F929F92AF92BF920F931F93CF93DF9391
:10036000CDB7DEB7A1970FB6F894DEBF0FBECDBFF5
:1003700019A2423008F44AE08E010F5D1F4F842E0F
:10038000912CB12CA12CA50194010E943006E62FDE
:10039000B901CA01EA3044F5E05DD801EE938D0160
:1003A000232B242B252B79F790E080E0109769F020
:1003B000FD0101900020E9F73197AF014A1B5B0B6B
:1003C000BD0183E291E00E948C00A1960FB6F894E3
:1003D000DEBF0FBECDBFDF91CF911F910F91BF90B8
:1003E000AF909F908F900895E95CD7CFFC0101906A
:1003F0000020E9F73197AF01481B590BBC0183E29C
:1004000091E00C948C00682F70E090E080E04AE06E
:100410000C94A8010F931F93CF93DF93082F162FEF
:10042000D42FC8E06D2F661F6627661F802F0E949D
:100430000B01DD0F61E0812F0E940B0160E0812F35
:100440000E940B01C15071F7DF91CF911F910F9165
:1004500008951F93CF93DF93182FC9E1D1E061E096
:1004600089810E94390161E089810E940B0161E06C
:1004700088810E940B0160E089810E940B0160E08D
:1004800088810E940B01412F68818981DF91CF9182
:100490001F910C940A02CF93DF93EC0160E08E81F0
:1004A0000E940B0161E08E810E940B0160E08E8151
:1004B0000E940B018BE891E00197F1F7DF91CF915A
:1004C0000895CF92DF92EF92FF920F931F93CF93F5
:1004D000DF936C017C0187E0E80EF11CD0E0C0E006
:1004E000062F10E0B8010C2E02C0759567950A948E
:1004F000E2F76170F70181917F010E940B01219663
:10050000C430D10579F7C601DF91CF911F910F91CA
:10051000FF90EF90DF90CF900C944B02CF92DF9240
:10052000EF92FF920F931F93CF93DF93EC01F62E80
:10053000642F8C810E940B018D818F3F19F060E048
:100540000E940B010F2D10E08F8584FF25C06E01E6
:1005500087E0C80ED11CF12CE12CB8010E2C02C092
:10056000759567950A94E2F76170F60181916F01C4
:100570000E940B01FFEFEF1AFF0A88E0E816F10472
:1005800061F7CE01DF91CF911F910F91FF90EF9016
:10059000DF90CF900C944B02B80184E0759567957D
:1005A0008A95E1F7CE010E9461026F2DCE01DF91A5
:1005B000CF911F910F91FF90EF90DF90CF900C940F
:1005C000610240E0682F83E291E00C948E02CF93A9
:1005D000DF93813029F0909132019860909332013D
:1005E000809336011092370180E48093380180E1D6
:1005F0008093390180E580933A0161E08091270181
:100600000E943901809128018F3F19F061E00E941A
:10061000390161E0809129010E943901C3E2D1E0F2
:100620009E01235231408091320184FD0BC084E051
:1006300090E021962817390744F461E08E810E94EA
:100640003901EECF88E090E0F4CF8BE39DE0019795
:10065000F1F760E0809127010E940B0160E080913A
:1006600029010E940B01809128018F3F19F060E061
:100670000E940B018091320184FD39C063E083E266
:1006800091E00E946102CBE4D6E4CE010197F1F73C
:1006900063E083E291E00E9461022197F1F763E059
:1006A00083E291E00E94610283E592E00197F1F715
:1006B00062E083E291E00E946102809132018062F7
:1006C0000E94E10284E0809333018CE00E94E10209
:1006D00081E00E94E1028BE39FE10197F1F782E064
:1006E0008093340186E0DF91CF910C94E102806227
:1006F0000E94E1028BE496E40197F1F780913201C8
:1007000080620E94E10283E592E00197F1F7809117
:10071000320180620E94E102D0CF909136016917C8
:1007200010F06FEF690FE62FF0E0ED5DFE4F94895A
:10073000890F80680C94E10241E00E948E0281E002
:1007400090E008951F920F920FB60F9211242F93ED
:100750003F938F939F93AF93BF938091110190919B
:100760001201A0911301B09114013091100123E006
:10077000230F2D3758F50196A11DB11D20931001AF
:100780008093110190931201A0931301B09314016F
:100790008091150190911601A0911701B091180157
:1007A0000196A11DB11D8093150190931601A09390
:1007B0001701B0931801BF91AF919F918F913F9115
:1007C0002F910F900FBE0F901F90189526E8230FC2
:1007D0000296A11DB11DD2CF789484B5826084BDEC
:1007E00084B5816084BD85B5826085BD85B5816035
:1007F00085BD80916E00816080936E0010928100B3
:10080000809181008260809381008091810081606D
:10081000809381008091800081608093800080912E
:10082000B10084608093B1008091B00081608093BA
:10083000B00080917A00846080937A0080917A0081
:10084000826080937A0080917A00816080937A0040
:1008500080917A00806880937A001092C100809124
:100860001A01823109F039C180911901833109F0EF
:1008700034C181E08093220161E082E10E940B019A
:1008800061E083E10E940B018091B9008E7F80932B
:10089000B9008091B9008D7F8093B9008CE080937E
:1008A000B80085E08093BC0084E00E94E7025BE32F
:1008B000252E5FE1352ED4EC62E2A62E61E0B62E45
:1008C00070E0872E70E0972ECAE081E00E94E1027E
:1008D000C1010197F1F780912201882309F405C134
:1008E00024EE2093BC008091BC0087FFFCCF80EDFC
:1008F0008093BB00D093BC008091BC0087FFFCCFED
:100900001092BB00D093BC008091BC0087FFFCCF4D
:1009100084EE8093BC008091BC0087FFFCCF81ED0A
:100920008093BB00D093BC008091BC0087FFFCCFBC
:10093000EBE1F1E0D093BC008091BC0087FFFCCFDD
:100940008091BB008193AE16BF06A1F794E8909307
:10095000BC008091BC0087FFFCCFE4E9E093BC00C1
:1009600010911B01812F829587701F708C9F100D35
:10097000112400911C01802F829587700F708C9F2D
:10098000000D112420911D01F22FFF70FF2E822FE8
:1009900090E027FF37C125FB882780F92CE0289FAE
:1009A000F00C112480911F01982F929597708F70F1
:1009B000D82E9C9FD00C112480912001982F9295C5
:1009C00097708F70C82E9C9FC00C1124E09021015D
:1009D00061E082E00E948D038D2D0E94030261E0A0
:1009E00085E00E948D038CE091E00E94F60161E0B9
:1009F00086E00E948D038C2D0E94030261E089E055
:100A00000E948D038CE091E00E94F60161E08AE093
:100A10000E948D038E2D82958F706E2D6F708C9F2E
:100A2000600D112470E06053784F072E000C880B86
:100A3000990B4AE00E94A80162E086E00E948D03C3
:100A40008F2D0E94030262E089E00E948D038EE0F8
:100A500091E00E94F60162E08AE00E948D03802FFF
:100A60000E94030262E08DE00E948D038EE091E01F
:100A70000E94F60162E08EE00E948D03812F0E94A9
:100A800003020E947F012B013C0188EEC82E83E007
:100A9000D82EE12CF12C0E947F016419750986097A
:100AA0009709683E734081059105A8F381E0C81A53
:100AB000D108E108F10898EE490E93E0591E611C37
:100AC000711CC114D104E104F10429F781149104CB
:100AD00009F4FBCE0E940000F7CE1092220161E0E3
:100AE000809119010E943901DFCE80ED0E94290218
:100AF0000E946A0161E080911A010E94390140E080
:100B00006091190180911A010E940A020E946A01F3
:100B100081ED0E9429020E946A014BE1C42E41E04E
:100B2000D42E10E000E060E080911A010E943901AB
:100B300037E0E32EF12C712C61E0809119010E94C5
:100B40000B0180911A010E94E20099270E2C01C02E
:100B5000880F0A94EAF7782A60E0809119010E94D0
:100B60000B01F1E0EF1AF10838F7F60171926F010D
:100B700080911A0161E006301105D9F10E94390116
:100B800060E0809119010E940B0160E080911A01E0
:100B90000E940B0161E0809119010E940B0160E04D
:100BA000809119010E940B0160E080911A010E945E
:100BB00039010F5F1F4F0730110509F0B4CF61E015
:100BC00080911A010E94390160E080911A010E940F
:100BD0000B0161E0809119010E940B0161E080919D
:100BE0001A010E940B0160E080911A010E943901F4
:100BF000B7CE0E94390160E0809119010E940B017B
:100C000061E0C4CF24E0959587952A95E1F783703C
:100C10008C9FF00C1124C6CEE9E1F1E082E18183E2
:100C200083E18083E3E2F1E01382128284E091E0C9
:100C30009183808388E084838FEF858389E0868336
:100C400084E0878385E0808786E0818787E08287EC
:100C50001386148615861686178681E00C94E702A3
:100C6000A1E21A2EAA1BBB1BFD010DC0AA1FBB1FB0
:100C7000EE1FFF1FA217B307E407F50720F0A21B22
:100C8000B30BE40BF50B661F771F881F991F1A948F
:100C900069F760957095809590959B01AC01BD01B9
:100CA000CF010895EE0FFF1F0590F491E02D0994F8
:100CB000F894FFCF000000009C038C00A501A40164
:040CC0002F003A00C7
:107E0000112484B714BE81FFF0D085E080938100F7
:107E100082E08093C00088E18093C10086E0809377
:107E2000C20080E18093C4008EE0C9D0259A86E02C
:107E300020E33CEF91E0309385002093840096BBD3
:107E4000B09BFECF1D9AA8958150A9F7CC24DD24C4
:107E500088248394B5E0AB2EA1E19A2EF3E0BF2EE7
:107E6000A2D0813461F49FD0082FAFD0023811F036
:107E7000013811F484E001C083E08DD089C08234E0
:107E800011F484E103C0853419F485E0A6D080C0E4
:107E9000853579F488D0E82EFF2485D0082F10E0AE
:107EA000102F00270E291F29000F111F8ED06801E7
:107EB0006FC0863521F484E090D080E0DECF843638
:107EC00009F040C070D06FD0082F6DD080E0C81688
:107ED00080E7D80618F4F601B7BEE895C0E0D1E017
:107EE00062D089930C17E1F7F0E0CF16F0E7DF06D8
:107EF00018F0F601B7BEE89568D007B600FCFDCFD4
:107F0000A601A0E0B1E02C9130E011968C91119780
:107F100090E0982F8827822B932B1296FA010C0160
:107F200087BEE89511244E5F5F4FF1E0A038BF0790
:107F300051F7F601A7BEE89507B600FCFDCF97BE46
:107F4000E89526C08437B1F42ED02DD0F82E2BD052
:107F50003CD0F601EF2C8F010F5F1F4F84911BD097
:107F6000EA94F801C1F70894C11CD11CFA94CF0C13
:107F7000D11C0EC0853739F428D08EE10CD085E9AC
:107F80000AD08FE07ACF813511F488E018D01DD067
:107F900080E101D065CF982F8091C00085FFFCCF94
:107FA0009093C60008958091C00087FFFCCF809118
:107FB000C00084FD01C0A8958091C6000895E0E648
:107FC000F0E098E1908380830895EDDF803219F02E
:107FD00088E0F5DFFFCF84E1DECF1F93182FE3DFCA
:107FE0001150E9F7F2DF1F91089580E0E8DFEE27F6
:047FF000FF270994CA
:027FFE00040479
:00000001FF
